{
  "contracts/PioneLiquidityManager.sol": {
    "PioneLiquidityManager": {
      "abi": [
        {
          "inputs": [
            {
              "internalType": "address",
              "name": "_pioneToken",
              "type": "address"
            },
            {
              "internalType": "address",
              "name": "_usdtToken",
              "type": "address"
            },
            {
              "internalType": "address",
              "name": "_pioneBridge",
              "type": "address"
            },
            {
              "internalType": "address",
              "name": "_router",
              "type": "address"
            },
            {
              "internalType": "address",
              "name": "_pinklock",
              "type": "address"
            },
            {
              "internalType": "uint256",
              "name": "_targetChain",
              "type": "uint256"
            }
          ],
          "stateMutability": "nonpayable",
          "type": "constructor"
        },
        {
          "inputs": [],
          "name": "AccessControlBadConfirmation",
          "type": "error"
        },
        {
          "inputs": [
            {
              "internalType": "address",
              "name": "account",
              "type": "address"
            },
            {
              "internalType": "bytes32",
              "name": "neededRole",
              "type": "bytes32"
            }
          ],
          "name": "AccessControlUnauthorizedAccount",
          "type": "error"
        },
        {
          "inputs": [],
          "name": "EnforcedPause",
          "type": "error"
        },
        {
          "inputs": [],
          "name": "ExpectedPause",
          "type": "error"
        },
        {
          "inputs": [],
          "name": "ReentrancyGuardReentrantCall",
          "type": "error"
        },
        {
          "inputs": [
            {
              "internalType": "address",
              "name": "token",
              "type": "address"
            }
          ],
          "name": "SafeERC20FailedOperation",
          "type": "error"
        },
        {
          "anonymous": false,
          "inputs": [
            {
              "indexed": true,
              "internalType": "bytes32",
              "name": "requestId",
              "type": "bytes32"
            },
            {
              "indexed": true,
              "internalType": "address",
              "name": "user",
              "type": "address"
            },
            {
              "indexed": false,
              "internalType": "uint256",
              "name": "amount",
              "type": "uint256"
            }
          ],
          "name": "ClaimedPIOtoPioneChain",
          "type": "event"
        },
        {
          "anonymous": false,
          "inputs": [
            {
              "indexed": true,
              "internalType": "address",
              "name": "account",
              "type": "address"
            },
            {
              "indexed": false,
              "internalType": "uint256",
              "name": "amount",
              "type": "uint256"
            }
          ],
          "name": "ClaimedUSDT",
          "type": "event"
        },
        {
          "anonymous": false,
          "inputs": [
            {
              "indexed": true,
              "internalType": "address",
              "name": "user",
              "type": "address"
            },
            {
              "indexed": true,
              "internalType": "bytes32",
              "name": "requestId",
              "type": "bytes32"
            },
            {
              "indexed": false,
              "internalType": "uint256",
              "name": "pioAmount",
              "type": "uint256"
            },
            {
              "indexed": false,
              "internalType": "uint256",
              "name": "usdtAmount",
              "type": "uint256"
            },
            {
              "indexed": false,
              "internalType": "uint256",
              "name": "liquidity",
              "type": "uint256"
            },
            {
              "indexed": false,
              "internalType": "uint256",
              "name": "slippage",
              "type": "uint256"
            }
          ],
          "name": "LiquidityAdded",
          "type": "event"
        },
        {
          "anonymous": false,
          "inputs": [
            {
              "indexed": true,
              "internalType": "address",
              "name": "user",
              "type": "address"
            },
            {
              "indexed": true,
              "internalType": "bytes32",
              "name": "requestId",
              "type": "bytes32"
            },
            {
              "indexed": false,
              "internalType": "uint256",
              "name": "lockId",
              "type": "uint256"
            },
            {
              "indexed": false,
              "internalType": "uint256",
              "name": "liquidity",
              "type": "uint256"
            },
            {
              "indexed": false,
              "internalType": "uint256",
              "name": "unlockDate",
              "type": "uint256"
            }
          ],
          "name": "LiquidityLocked",
          "type": "event"
        },
        {
          "anonymous": false,
          "inputs": [
            {
              "indexed": true,
              "internalType": "bytes32",
              "name": "requestId",
              "type": "bytes32"
            },
            {
              "indexed": true,
              "internalType": "address",
              "name": "user",
              "type": "address"
            },
            {
              "indexed": false,
              "internalType": "uint256",
              "name": "amountPIO",
              "type": "uint256"
            },
            {
              "indexed": false,
              "internalType": "uint256",
              "name": "amountUSDT",
              "type": "uint256"
            },
            {
              "indexed": false,
              "internalType": "uint256",
              "name": "lockMonths",
              "type": "uint256"
            }
          ],
          "name": "LiquidityRequestCreated",
          "type": "event"
        },
        {
          "anonymous": false,
          "inputs": [
            {
              "indexed": false,
              "internalType": "address",
              "name": "account",
              "type": "address"
            }
          ],
          "name": "Paused",
          "type": "event"
        },
        {
          "anonymous": false,
          "inputs": [
            {
              "indexed": true,
              "internalType": "address",
              "name": "oldAddress",
              "type": "address"
            },
            {
              "indexed": true,
              "internalType": "address",
              "name": "newAddress",
              "type": "address"
            }
          ],
          "name": "PioneBridgeUpdated",
          "type": "event"
        },
        {
          "anonymous": false,
          "inputs": [
            {
              "indexed": true,
              "internalType": "bytes32",
              "name": "role",
              "type": "bytes32"
            },
            {
              "indexed": true,
              "internalType": "bytes32",
              "name": "previousAdminRole",
              "type": "bytes32"
            },
            {
              "indexed": true,
              "internalType": "bytes32",
              "name": "newAdminRole",
              "type": "bytes32"
            }
          ],
          "name": "RoleAdminChanged",
          "type": "event"
        },
        {
          "anonymous": false,
          "inputs": [
            {
              "indexed": true,
              "internalType": "bytes32",
              "name": "role",
              "type": "bytes32"
            },
            {
              "indexed": true,
              "internalType": "address",
              "name": "account",
              "type": "address"
            },
            {
              "indexed": true,
              "internalType": "address",
              "name": "sender",
              "type": "address"
            }
          ],
          "name": "RoleGranted",
          "type": "event"
        },
        {
          "anonymous": false,
          "inputs": [
            {
              "indexed": true,
              "internalType": "bytes32",
              "name": "role",
              "type": "bytes32"
            },
            {
              "indexed": true,
              "internalType": "address",
              "name": "account",
              "type": "address"
            },
            {
              "indexed": true,
              "internalType": "address",
              "name": "sender",
              "type": "address"
            }
          ],
          "name": "RoleRevoked",
          "type": "event"
        },
        {
          "anonymous": false,
          "inputs": [
            {
              "indexed": false,
              "internalType": "address",
              "name": "account",
              "type": "address"
            }
          ],
          "name": "Unpaused",
          "type": "event"
        },
        {
          "anonymous": false,
          "inputs": [
            {
              "indexed": false,
              "internalType": "uint256",
              "name": "oldAmount",
              "type": "uint256"
            },
            {
              "indexed": false,
              "internalType": "uint256",
              "name": "newAmount",
              "type": "uint256"
            }
          ],
          "name": "UpdatedMinClaimPIOAmount",
          "type": "event"
        },
        {
          "anonymous": false,
          "inputs": [
            {
              "indexed": true,
              "internalType": "bytes32",
              "name": "requestId",
              "type": "bytes32"
            },
            {
              "indexed": true,
              "internalType": "address",
              "name": "user",
              "type": "address"
            },
            {
              "indexed": false,
              "internalType": "uint256",
              "name": "amount",
              "type": "uint256"
            }
          ],
          "name": "UserDepositUSDT",
          "type": "event"
        },
        {
          "inputs": [],
          "name": "DEFAULT_ADMIN_ROLE",
          "outputs": [
            {
              "internalType": "bytes32",
              "name": "",
              "type": "bytes32"
            }
          ],
          "stateMutability": "view",
          "type": "function"
        },
        {
          "inputs": [],
          "name": "LP_PAIR",
          "outputs": [
            {
              "internalType": "address",
              "name": "",
              "type": "address"
            }
          ],
          "stateMutability": "view",
          "type": "function"
        },
        {
          "inputs": [],
          "name": "MANAGER_ROLE",
          "outputs": [
            {
              "internalType": "bytes32",
              "name": "",
              "type": "bytes32"
            }
          ],
          "stateMutability": "view",
          "type": "function"
        },
        {
          "inputs": [],
          "name": "PIONECHAIN_ID",
          "outputs": [
            {
              "internalType": "uint256",
              "name": "",
              "type": "uint256"
            }
          ],
          "stateMutability": "view",
          "type": "function"
        },
        {
          "inputs": [],
          "name": "PIONE_TOKEN",
          "outputs": [
            {
              "internalType": "address",
              "name": "",
              "type": "address"
            }
          ],
          "stateMutability": "view",
          "type": "function"
        },
        {
          "inputs": [],
          "name": "POOL_LOCK",
          "outputs": [
            {
              "internalType": "address",
              "name": "",
              "type": "address"
            }
          ],
          "stateMutability": "view",
          "type": "function"
        },
        {
          "inputs": [],
          "name": "USDT_TOKEN",
          "outputs": [
            {
              "internalType": "address",
              "name": "",
              "type": "address"
            }
          ],
          "stateMutability": "view",
          "type": "function"
        },
        {
          "inputs": [
            {
              "internalType": "bytes32",
              "name": "requestId",
              "type": "bytes32"
            },
            {
              "internalType": "uint256",
              "name": "slippagePercent",
              "type": "uint256"
            }
          ],
          "name": "addLiquidity",
          "outputs": [
            {
              "internalType": "bool",
              "name": "",
              "type": "bool"
            }
          ],
          "stateMutability": "nonpayable",
          "type": "function"
        },
        {
          "inputs": [
            {
              "internalType": "uint256",
              "name": "amount",
              "type": "uint256"
            }
          ],
          "name": "claimPioToPioneChain",
          "outputs": [
            {
              "internalType": "bool",
              "name": "",
              "type": "bool"
            }
          ],
          "stateMutability": "nonpayable",
          "type": "function"
        },
        {
          "inputs": [
            {
              "internalType": "uint256",
              "name": "amount",
              "type": "uint256"
            }
          ],
          "name": "claimUSDT",
          "outputs": [
            {
              "internalType": "bool",
              "name": "",
              "type": "bool"
            }
          ],
          "stateMutability": "nonpayable",
          "type": "function"
        },
        {
          "inputs": [
            {
              "internalType": "bytes32",
              "name": "requestId",
              "type": "bytes32"
            }
          ],
          "name": "depositUSDT",
          "outputs": [
            {
              "internalType": "bool",
              "name": "",
              "type": "bool"
            }
          ],
          "stateMutability": "nonpayable",
          "type": "function"
        },
        {
          "inputs": [],
          "name": "getMinClaimPIOAmount",
          "outputs": [
            {
              "internalType": "uint256",
              "name": "",
              "type": "uint256"
            }
          ],
          "stateMutability": "view",
          "type": "function"
        },
        {
          "inputs": [
            {
              "internalType": "uint256",
              "name": "usdtAmount",
              "type": "uint256"
            }
          ],
          "name": "getOptimalAmountPIO",
          "outputs": [
            {
              "internalType": "uint256",
              "name": "optimalPioAmount",
              "type": "uint256"
            }
          ],
          "stateMutability": "view",
          "type": "function"
        },
        {
          "inputs": [
            {
              "internalType": "uint256",
              "name": "pioAmount",
              "type": "uint256"
            }
          ],
          "name": "getOptimalAmountUSDT",
          "outputs": [
            {
              "internalType": "uint256",
              "name": "optimalUsdtAmount",
              "type": "uint256"
            }
          ],
          "stateMutability": "view",
          "type": "function"
        },
        {
          "inputs": [
            {
              "internalType": "bytes32",
              "name": "requestId",
              "type": "bytes32"
            }
          ],
          "name": "getRequestIdOwner",
          "outputs": [
            {
              "internalType": "address",
              "name": "",
              "type": "address"
            }
          ],
          "stateMutability": "view",
          "type": "function"
        },
        {
          "inputs": [],
          "name": "getReserves",
          "outputs": [
            {
              "internalType": "uint256",
              "name": "reserveUsdt",
              "type": "uint256"
            },
            {
              "internalType": "uint256",
              "name": "reservePione",
              "type": "uint256"
            }
          ],
          "stateMutability": "view",
          "type": "function"
        },
        {
          "inputs": [
            {
              "internalType": "bytes32",
              "name": "role",
              "type": "bytes32"
            }
          ],
          "name": "getRoleAdmin",
          "outputs": [
            {
              "internalType": "bytes32",
              "name": "",
              "type": "bytes32"
            }
          ],
          "stateMutability": "view",
          "type": "function"
        },
        {
          "inputs": [
            {
              "internalType": "bytes32",
              "name": "requestId",
              "type": "bytes32"
            }
          ],
          "name": "getTransactionInfo",
          "outputs": [
            {
              "internalType": "uint256",
              "name": "pioAmount",
              "type": "uint256"
            },
            {
              "internalType": "uint256",
              "name": "usdtAmount",
              "type": "uint256"
            },
            {
              "internalType": "uint256",
              "name": "liquidityAmount",
              "type": "uint256"
            },
            {
              "internalType": "bool",
              "name": "_depositUSDT",
              "type": "bool"
            },
            {
              "internalType": "uint256",
              "name": "pinkLockId",
              "type": "uint256"
            },
            {
              "internalType": "uint256",
              "name": "lockMonths",
              "type": "uint256"
            }
          ],
          "stateMutability": "view",
          "type": "function"
        },
        {
          "inputs": [
            {
              "internalType": "address",
              "name": "account",
              "type": "address"
            }
          ],
          "name": "getUserBalances",
          "outputs": [
            {
              "internalType": "uint256",
              "name": "pioBalance",
              "type": "uint256"
            },
            {
              "internalType": "uint256",
              "name": "usdtBalance",
              "type": "uint256"
            }
          ],
          "stateMutability": "view",
          "type": "function"
        },
        {
          "inputs": [
            {
              "internalType": "bytes32",
              "name": "role",
              "type": "bytes32"
            },
            {
              "internalType": "address",
              "name": "account",
              "type": "address"
            }
          ],
          "name": "grantRole",
          "outputs": [],
          "stateMutability": "nonpayable",
          "type": "function"
        },
        {
          "inputs": [
            {
              "internalType": "bytes32",
              "name": "requestId",
              "type": "bytes32"
            },
            {
              "internalType": "address",
              "name": "account",
              "type": "address"
            },
            {
              "internalType": "uint256",
              "name": "amountPIO",
              "type": "uint256"
            },
            {
              "internalType": "uint256",
              "name": "amountUSDT",
              "type": "uint256"
            },
            {
              "internalType": "uint256",
              "name": "lockMonths",
              "type": "uint256"
            }
          ],
          "name": "handleBridgeCompleted",
          "outputs": [],
          "stateMutability": "nonpayable",
          "type": "function"
        },
        {
          "inputs": [
            {
              "internalType": "bytes32",
              "name": "role",
              "type": "bytes32"
            },
            {
              "internalType": "address",
              "name": "account",
              "type": "address"
            }
          ],
          "name": "hasRole",
          "outputs": [
            {
              "internalType": "bool",
              "name": "",
              "type": "bool"
            }
          ],
          "stateMutability": "view",
          "type": "function"
        },
        {
          "inputs": [],
          "name": "pause",
          "outputs": [],
          "stateMutability": "nonpayable",
          "type": "function"
        },
        {
          "inputs": [],
          "name": "paused",
          "outputs": [
            {
              "internalType": "bool",
              "name": "",
              "type": "bool"
            }
          ],
          "stateMutability": "view",
          "type": "function"
        },
        {
          "inputs": [],
          "name": "pioneBridge",
          "outputs": [
            {
              "internalType": "address",
              "name": "",
              "type": "address"
            }
          ],
          "stateMutability": "view",
          "type": "function"
        },
        {
          "inputs": [
            {
              "internalType": "uint256",
              "name": "pioneAmount",
              "type": "uint256"
            },
            {
              "internalType": "uint256",
              "name": "usdtAmount",
              "type": "uint256"
            }
          ],
          "name": "previewAddLiquidity",
          "outputs": [
            {
              "internalType": "uint256",
              "name": "actualPioAmount",
              "type": "uint256"
            },
            {
              "internalType": "uint256",
              "name": "actualUsdtAmount",
              "type": "uint256"
            },
            {
              "internalType": "uint256",
              "name": "estimatedLiquidity",
              "type": "uint256"
            },
            {
              "internalType": "uint256",
              "name": "refundPio",
              "type": "uint256"
            },
            {
              "internalType": "uint256",
              "name": "refundUsdt",
              "type": "uint256"
            }
          ],
          "stateMutability": "view",
          "type": "function"
        },
        {
          "inputs": [
            {
              "internalType": "bytes32",
              "name": "role",
              "type": "bytes32"
            },
            {
              "internalType": "address",
              "name": "callerConfirmation",
              "type": "address"
            }
          ],
          "name": "renounceRole",
          "outputs": [],
          "stateMutability": "nonpayable",
          "type": "function"
        },
        {
          "inputs": [
            {
              "internalType": "bytes32",
              "name": "role",
              "type": "bytes32"
            },
            {
              "internalType": "address",
              "name": "account",
              "type": "address"
            }
          ],
          "name": "revokeRole",
          "outputs": [],
          "stateMutability": "nonpayable",
          "type": "function"
        },
        {
          "inputs": [],
          "name": "router",
          "outputs": [
            {
              "internalType": "contract IPancakeRouter02",
              "name": "",
              "type": "address"
            }
          ],
          "stateMutability": "view",
          "type": "function"
        },
        {
          "inputs": [
            {
              "internalType": "uint256",
              "name": "minAmount",
              "type": "uint256"
            }
          ],
          "name": "setMinClaimPIOAmount",
          "outputs": [],
          "stateMutability": "nonpayable",
          "type": "function"
        },
        {
          "inputs": [
            {
              "internalType": "address",
              "name": "_pioneBridge",
              "type": "address"
            }
          ],
          "name": "setPioneBridge",
          "outputs": [],
          "stateMutability": "nonpayable",
          "type": "function"
        },
        {
          "inputs": [
            {
              "internalType": "bytes4",
              "name": "interfaceId",
              "type": "bytes4"
            }
          ],
          "name": "supportsInterface",
          "outputs": [
            {
              "internalType": "bool",
              "name": "",
              "type": "bool"
            }
          ],
          "stateMutability": "view",
          "type": "function"
        },
        {
          "inputs": [],
          "name": "unpause",
          "outputs": [],
          "stateMutability": "nonpayable",
          "type": "function"
        }
      ],
      "evm": {
        "bytecode": {
          "linkReferences": {},
          "object": "610120806040523461036d5760c0816129c980380380916100208285610421565b83398101031261036d576100338161045a565b61003f6020830161045a565b61004b6040840161045a565b926100586060820161045a565b9160a06100676080840161045a565b9201516001600255936001600160a01b03811615158061040f575b806103fd575b806103eb575b156103b45760805260a05260e052600380546001600160a01b0319166001600160a01b03831690811790915560405163c45a015560e01b815290602090829060049082905afa9081156102cf5760009161037a575b5060805160a05160405163e6a4390560e01b81526001600160a01b03928316600482015290821660248201529160209183916044918391165afa9081156102cf5760009161033b575b5060c08190526001600160a01b0316156102f65760805160405163095ea7b360e01b81526001600160a01b0383811660048301526000196024830152909160209183916044918391600091165af180156102cf576000926020926101cb926102db575b5060a05160405163095ea7b360e01b81526001600160a01b03928316600482015260001960248201529485939190921691839182906044820190565b03925af180156102cf576102a2575b506101e433610486565b506101ee33610502565b5061010052600480546001600160a01b0319166001600160a01b0392909216919091179055670de0b6b3a76400006005556040516123ce908161059b82396080518181816102e80152611389015260a0518181816104530152818161078201528181610f47015281816113b70152611f0d015260c0518181816105ac015281816114da01528181611b870152611e87015260e05181818161111901526114a201526101005181818161026801526109100152f35b6102c39060203d6020116102c8575b6102bb8183610421565b81019061046e565b6101da565b503d6102b1565b6040513d6000823e3d90fd5b6102f190843d86116102c8576102bb8183610421565b61018f565b60405162461bcd60e51b815260206004820152601660248201527f4c50207061697220646f6573206e6f74206578697374000000000000000000006044820152606490fd5b90506020813d602011610372575b8161035660209383610421565b8101031261036d576103679061045a565b3861012c565b600080fd5b3d9150610349565b90506020813d6020116103ac575b8161039560209383610421565b8101031261036d576103a69061045a565b386100e3565b3d9150610388565b60405162461bcd60e51b815260206004820152600f60248201526e496e76616c6964206164647265737360881b6044820152606490fd5b506001600160a01b038316151561008e565b506001600160a01b0384161515610088565b506001600160a01b0382161515610082565b601f909101601f19168101906001600160401b0382119082101761044457604052565b634e487b7160e01b600052604160045260246000fd5b51906001600160a01b038216820361036d57565b9081602091031261036d5751801515810361036d5790565b6001600160a01b03811660009081526000805160206129a9833981519152602052604090205460ff166104fc576001600160a01b031660008181526000805160206129a983398151915260205260408120805460ff191660011790553391906000805160206129698339815191528180a4600190565b50600090565b6001600160a01b0381166000908152600080516020612989833981519152602052604090205460ff166104fc576001600160a01b0316600081815260008051602061298983398151915260205260408120805460ff191660011790553391907f241ecf16d79d0f8dbfb92cbc07fe17840425976cf0667f022fe9877caa831b08906000805160206129698339815191529080a460019056fe608080604052600436101561001357600080fd5b60003560e01c90816301ffc9a714611dc3575080630902f1ac14611d9c5780630947152814611d7e5780631147010314611d205780631cdf2dc314611ae2578063248a9ca314611aad5780632f2ff15d14611a6d57806336568abe14611a275780633b57e2bc146111d25780633f4ba83a14611148578063449b53921461110357806349e6b62c146110005780634e46d25914610e0d5780635585a6fa14610a965780635c975abb14610a735780636eba86a21461088a578063721c8c0a146107b157806377b330c91461076c57806378bb5dbd146106a25780638456cb591461062857806391d14854146105db57806393a013e014610596578063a217fddf1461057a578063abd3f61214610537578063b0f9006a146103d2578063bc33980914610317578063d344f1b9146102d2578063d547741f1461028b578063db7736cb14610250578063ec87621c14610215578063edc73dbc146101ec578063f4627a11146101b85763f887ea401461018a57600080fd5b346101b35760003660031901126101b3576003546040516001600160a01b039091168152602090f35b600080fd5b346101b35760203660031901126101b3576004356000526007602052602060018060a01b0360406000205416604051908152f35b346101b35760003660031901126101b3576004546040516001600160a01b039091168152602090f35b346101b35760003660031901126101b35760206040517f241ecf16d79d0f8dbfb92cbc07fe17840425976cf0667f022fe9877caa831b088152f35b346101b35760003660031901126101b35760206040517f00000000000000000000000000000000000000000000000000000000000000008152f35b346101b35760403660031901126101b3576102d06004356102aa611e16565b906102cb6102c682600052600060205260016040600020015490565b612164565b61222a565b005b346101b35760003660031901126101b3576040517f00000000000000000000000000000000000000000000000000000000000000006001600160a01b03168152602090f35b346101b35760203660031901126101b3576103766020610335611e78565b600354604051632b58577b60e21b8152600480359082015260248101939093526044830191909152909283916001600160a01b031690829081906064820190565b03915afa80156103c657600090610393575b602090604051908152f35b506020813d6020116103be575b816103ad60209383611e42565b810103126101b35760209051610388565b3d91506103a0565b6040513d6000823e3d90fd5b346101b35760203660031901126101b3576004356103ee6122c9565b6103f66122ac565b801561050157336000526006602052600160406000200180548281106104bc578261042091611fdb565b905560405163a9059cbb60e01b60208201523360248201526044808201839052815261048090610451606482611e42565b7f00000000000000000000000000000000000000000000000000000000000000006001600160a01b031661231d565b6040519081527f4a871023ddab2a4d3bfcfeeeca493e98d3ef746b67db88347ad53d14f6a532bd60203392a26001600255602060405160018152f35b60405162461bcd60e51b815260206004820152601960248201527f496e73756666696369656e742062616c616e63652055534454000000000000006044820152606490fd5b60405162461bcd60e51b815260206004820152600e60248201526d1a5b9d985b1a5908185b5bdd5b9d60921b6044820152606490fd5b346101b35760203660031901126101b3576001600160a01b03610558611e2c565b1660005260066020526040806000206001815491015482519182526020820152f35b346101b35760003660031901126101b357602060405160008152f35b346101b35760003660031901126101b3576040517f00000000000000000000000000000000000000000000000000000000000000006001600160a01b03168152602090f35b346101b35760403660031901126101b3576105f4611e16565b600435600052600060205260406000209060018060a01b0316600052602052602060ff604060002054166040519015158152f35b346101b35760003660031901126101b35733600090815260008051602061237983398151915260205260409020546106629060ff16612107565b61066a6122ac565b600160ff19815416176001557f62e78cea01bee320cd4e420270b5ea74000d11b0c9f74754ebdbfc544b05a2586020604051338152a1005b346101b35760203660031901126101b3573360009081526000805160206123798339815191526020526040902054600435906106e09060ff16612107565b801561071d577fb29db3ed4be00bb9125746733a49fa8e4bc0d6c1cba2d0e3c0b3d72801c2752760406005548151908152836020820152a1600555005b60405162461bcd60e51b815260206004820152602160248201527f4d696e20616d6f756e74206d7573742062652067726561746572207468616e206044820152600360fc1b6064820152608490fd5b346101b35760003660031901126101b3576040517f00000000000000000000000000000000000000000000000000000000000000006001600160a01b03168152602090f35b346101b35760203660031901126101b3576107ca611e2c565b33600090815260008051602061237983398151915260205260409020546107f39060ff16612107565b6001600160a01b0316801561084557600454816001600160a01b0382167fec54b369953ed98493762cc0b6b40fa246ab8f4a0f507f6c268b9098e0fb1d50600080a36001600160a01b03191617600455005b60405162461bcd60e51b815260206004820152601b60248201527f496e76616c69642050696f6e65427269646765206164647265737300000000006044820152606490fd5b346101b35760203660031901126101b3576004356108a66122c9565b6108ae6122ac565b8015610a355760055481106109f957336000526006602052604060002080548281106109b457826108de91611fdb565b90556000602060018060a01b036004541660646040518094819363065733d160e31b83523360048401528760248401527f000000000000000000000000000000000000000000000000000000000000000060448401525af19081156103c657600091610982575b506040519182527fe97754e9280514bb5691c3dee7edef6951965134bbe0bd8139a447208aaced0260203393a36001600255602060405160018152f35b90506020813d6020116109ac575b8161099d60209383611e42565b810103126101b3575182610945565b3d9150610990565b60405162461bcd60e51b815260206004820152601860248201527f496e73756666696369656e742062616c616e63652050494f00000000000000006044820152606490fd5b60405162461bcd60e51b8152602060048201526014602482015273416d6f756e742062656c6f77206d696e696d756d60601b6044820152606490fd5b60405162461bcd60e51b81526020600482015260166024820152750416d6f756e742050494f206d757374206265203e20360541b6044820152606490fd5b346101b35760003660031901126101b357602060ff600154166040519015158152f35b346101b35760a03660031901126101b357600435610ab2611e16565b3360009081527fe84508f2c7fa9c351146748b3025cb78b45df37d868e48c6a75102fecdeee6456020526040902054604435929160843591606435919060ff1615610dda57610aff6122ac565b60048054604051635617249b60e11b8152918201869052602090829060249082906001600160a01b03165afa9081156103c657600091610dab575b5015610d66576000848152600760205260409020546001600160a01b0316610d29578215610cd95760018060a01b03169384600052600660205260406000206040519360c0850185811067ffffffffffffffff821117610cc3576040528285526020850191848352604086019560008752606081019060008252608081016000815260a08201908582528a600052600760205260406000208c6bffffffffffffffffffffffff60a01b8254161790556003850180548c600052600487016020528060406000205568010000000000000000811015610cc357610c21916001820181556120d5565b949094610cad577f57d14a62af56a5926258be60c622e5f0074a2dd18a33bd254821bd2a1f0e42b79a610ca898600595518755516001870155516002860155600385019051151560ff8019835416911617905551600484015551910155610c8984825461213f565b9055604051938493846040919493926060820195825260208201520152565b0390a3005b634e487b7160e01b600052600060045260246000fd5b634e487b7160e01b600052604160045260246000fd5b60405162461bcd60e51b815260206004820152602260248201527f4c6f636b206d6f6e746873206d7573742062652067726561746572207468616e604482015261020360f41b6064820152608490fd5b60405162461bcd60e51b815260206004820152601560248201527414995c5d595cdd125908185b1c9958591e481cd95d605a1b6044820152606490fd5b60405162461bcd60e51b815260206004820152601960248201527f5472616e73616374696f6e206e6f7420636f6d706c65746564000000000000006044820152606490fd5b610dcd915060203d602011610dd3575b610dc58183611e42565b81019061214c565b86610b3a565b503d610dbb565b60405162461bcd60e51b815260206004820152600b60248201526a2737ba1036b0b730b3b2b960a91b6044820152606490fd5b346101b35760203660031901126101b357600435610e296122c9565b610e316122ac565b600081815260076020526040902054610e54906001600160a01b03161515611ffb565b806000526007602052610e7560018060a01b03604060002054163314612047565b33600052600660205260ff6003610ec860406000208460005260048101602052826040600020549101610eaa81548310612093565b610ec36001610eb984846120d5565b5001541515612093565b6120d5565b50015416610fc25733600052600660205260406000209080600052600482016020526001604060002054926003610f6c8183019584610f0782896120d5565b50015496610ec36040516323b872dd60e01b602082015233602482015230604482015289606482015260648152610f3f608482611e42565b878060a01b037f00000000000000000000000000000000000000000000000000000000000000001661231d565b50018260ff1982541617905501610f8483825461213f565b90556040519182527f30fc86fb0bd3162e3aaba39b31fea8f708d17d861dc141db29fd9d47beb8ce3a60203393a36001600255602060405160018152f35b60405162461bcd60e51b8152602060048201526016602482015275105b1c9958591e4819195c1bdcda5d1959081554d11560521b6044820152606490fd5b346101b35760203660031901126101b357600435600081815260076020526040902054611037906001600160a01b03161515611ffb565b80600052600760205260018060a01b03604060002054166000526006602052604060002090600052600481016020526003604060002054910180548210156110cb5760c091611085916120d5565b50805490600181015490600281015460ff6003830154169060056004840154930154936040519586526020860152604085015215156060840152608083015260a0820152f35b60405162461bcd60e51b815260206004820152601060248201526f24b73b30b634b2103837b9b4ba34b7b760811b6044820152606490fd5b346101b35760003660031901126101b3576040517f00000000000000000000000000000000000000000000000000000000000000006001600160a01b03168152602090f35b346101b35760003660031901126101b35733600090815260008051602061237983398151915260205260409020546111829060ff16612107565b60015460ff8116156111c15760ff19166001557f5db9ee0a495bf2e6ff9c91a7834c1ba4fdd244a5e8aa4e537bd38aeae4b073aa6020604051338152a1005b638dfc202b60e01b60005260046000fd5b346101b35760403660031901126101b3576024356004356111f16122ac565b6111f96122c9565b60008181526007602052604090205461121c906001600160a01b03161515611ffb565b60008181526007602052604090205461123f906001600160a01b03163314612047565b33600052600660205260406000208160005260048101602052600360406000205491019061126f82548210612093565b61127e6001610eb983856120d5565b600261128a82846120d5565b5001546119d85761129f60039160ff936120d5565b500154161561199b57605a82116119625733600052600660205260406000209080600052600482016020526040600020549260038301926112e085856120d5565b505460016112ee87876120d5565b5001549282549382851061192857600184018054918083106118ef578360640396606488116118d9576113498260646113278b8a611fe8565b049561134289606461133b60009e86611fe8565b0495611fdb565b8a55611fdb565b83556003544261012c810195916001600160a01b03169086106118c557606092918a61010492604051988995869462e8e33760e81b865260018060a01b037f000000000000000000000000000000000000000000000000000000000000000016600487015260018060a01b037f00000000000000000000000000000000000000000000000000000000000000001660248701528d6044870152896064870152608486015260a48501523060c485015260e48401525af19586156118ba579088959493929188958c8c8b968c9b61185f575b50918a600261142d8b948a9897966120d5565b5001556002830161143f8c825461213f565b9055818111611848575b50505081811161182a575b505050604051928352602083015283604083015260608201527fef15d1205ede66926e7d68d76794bbca9b64dff11b1596bb376ed957125311ec60803392a360405163095ea7b360e01b81527f00000000000000000000000000000000000000000000000000000000000000006001600160a01b038181166004840152602483018490527f0000000000000000000000000000000000000000000000000000000000000000169690959091602081604481888c5af1801561181f57611802575b50600561152183836120d5565b5001548062278d00029062278d008204036117ee57611543909796974261213f565b96604096888851926115558a85611e42565b601084526f181899199a1a9b1b9c1cb0b131b232b360811b602085015286888b516115808d82611e42565b600681528c6020820197601f198201368a37835b6003811061170a5750509560e491611645886115fe6002603560209c51809e6115e18f8301987403d9136111d10112824a7902628102637b1b5b2b91605d1b8a52518092858501906122e9565b810161227d60f01b8382015203018d601d1982019052018c611e42565b51998a9889978895630727935760e01b87523360048801526024870152600160448701526064860152608485015260c060a48501525180928160c4860152858501906122e9565b601f01601f191681010301926001600160a01b03165af19485156116ff5780956116c2575b50509183600461169e602099947f1c2fac9a217b58d9184feaeea4f883f176e185406b96166fbcad47dc04861111966120d5565b5001558551938452602084015260408301523391606090a360016002555160018152f35b90919294506020823d6020116116f7575b816116e060209383611e42565b810103126116f4575051929080600461166a565b80fd5b3d91506116d3565b8751903d90823e3d90fd5b93509350509294935080600203600281116117da576001600160fd1b03811681036117da57339060031b1c60ff60f81b61174a600f8360041c168561230c565b5116908260011b91838304600214841517156117c6578c1a61176c838761230c565b536001600160f81b03199061178490600f168561230c565b5116600182018092116117b257906117a2600193928d1a918661230c565b53018c9394928c8a938c93611594565b634e487b7160e01b8c52601160045260248cfd5b634e487b7160e01b8d52601160045260248dfd5b634e487b7160e01b8b52601160045260248bfd5b634e487b7160e01b85526011600452602485fd5b61181a9060203d602011610dd357610dc58183611e42565b611514565b6040513d87823e3d90fd5b61183e9161183791611fdb565b825461213f565b9055898181611454565b6118559161183791611fdb565b90558c8681611449565b9599505050955092509295506060813d6060116118b2575b8161188460609383611e42565b810103126118ae5780516020820151604090920151968996919590949293919291908c8c8661141a565b8680fd5b3d9150611877565b6040513d89823e3d90fd5b634e487b7160e01b8a52601160045260248afd5b634e487b7160e01b600052601160045260246000fd5b60405162461bcd60e51b8152602060048201526011602482015270125b9cdd59999a58da595b9d081554d115607a1b6044820152606490fd5b60405162461bcd60e51b8152602060048201526012602482015271496e73756666696369656e742050494f4e4560701b6044820152606490fd5b60405162461bcd60e51b81526020600482015260116024820152700a6d8d2e0e0c2ceca40e8dede40d0d2ced607b1b6044820152606490fd5b60405162461bcd60e51b81526020600482015260156024820152741554d115081b9bdd081c1c9bdd9a591959081e595d605a1b6044820152606490fd5b60405162461bcd60e51b815260206004820152602160248201527f4164646974696f6e616c206c69717569646974792072657175657374206d61646044820152606560f81b6064820152608490fd5b346101b35760403660031901126101b357611a40611e16565b336001600160a01b03821603611a5c576102d09060043561222a565b63334bd91960e11b60005260046000fd5b346101b35760403660031901126101b3576102d0600435611a8c611e16565b90611aa86102c682600052600060205260016040600020015490565b61219f565b346101b35760203660031901126101b3576020611ada600435600052600060205260016040600020015490565b604051908152f35b346101b35760403660031901126101b3576004356000602435611b03611e78565b600354604051632b58577b60e21b81526004810187905260248101839052604481018490529195919491926001600160a01b0390911690602086606481855afa958615611d1557908792918497611cd8575b50858711611c3c5750505050611b6d90928092611fdb565b906000905b6040516318160ddd60e01b81526020816004817f00000000000000000000000000000000000000000000000000000000000000006001600160a01b03165afa80156103c657600090611c08575b611bca915085611fe8565b948015611bf25760a09504906040519485526020850152604084015260608301526080820152f35b634e487b7160e01b600052601260045260246000fd5b506020813d602011611c34575b81611c2260209383611e42565b810103126101b357611bca9051611bbf565b3d9150611c15565b604051632b58577b60e21b815260048101879052602481019190915260448101929092529394509192602090839060649082905afa908115611ccc578091611c95575b50611c8d9150809392611fdb565b600091611b72565b90506020823d602011611cc4575b81611cb060209383611e42565b810103126116f45750611c8d905185611c7f565b3d9150611ca3565b604051903d90823e3d90fd5b91925095506020813d602011611d0d575b81611cf660209383611e42565b81010312611d0957908691519588611b55565b8280fd5b3d9150611ce9565b6040513d85823e3d90fd5b346101b35760203660031901126101b3576103766020611d3e611e78565b600354604051632b58577b60e21b81526004803590820152602481019290925260448201929092529283916001600160a01b031690829081906064820190565b346101b35760003660031901126101b3576020600554604051908152f35b346101b35760003660031901126101b3576040611db7611e78565b82519182526020820152f35b346101b35760203660031901126101b3576004359063ffffffff60e01b82168092036101b357602091637965db0b60e01b8114908115611e05575b5015158152f35b6301ffc9a760e01b14905083611dfe565b602435906001600160a01b03821682036101b357565b600435906001600160a01b03821682036101b357565b90601f8019910116810190811067ffffffffffffffff821117610cc357604052565b51906001600160701b03821682036101b357565b604051630240bc6b60e21b81527f00000000000000000000000000000000000000000000000000000000000000006001600160a01b031690606081600481855afa9081156103c6576000908192611f81575b5060206001600160701b03806004931693169360405192838092630dfe168160e01b82525afa9081156103c657600091611f3b575b506001600160a01b039081167f000000000000000000000000000000000000000000000000000000000000000090911603611f375791565b9091565b6020813d602011611f79575b81611f5460209383611e42565b81010312611f755751906001600160a01b03821682036116f4575038611eff565b5080fd5b3d9150611f47565b91506060823d606011611fd3575b81611f9c60609383611e42565b810103126116f457611fad82611e64565b906040611fbc60208501611e64565b93015163ffffffff8116036116f457506020611eca565b3d9150611f8f565b919082039182116118d957565b818102929181159184041417156118d957565b1561200257565b60405162461bcd60e51b815260206004820152601860248201527f52657175657374496420646f6573206e6f7420657869737400000000000000006044820152606490fd5b1561204e57565b60405162461bcd60e51b815260206004820152601d60248201527f4e6f7420746865206f776e6572206f66207468697320726571756573740000006044820152606490fd5b1561209a57565b60405162461bcd60e51b815260206004820152601360248201527224b73b30b634b2103a3930b739b0b1ba34b7b760691b6044820152606490fd5b80548210156120f1576000526006602060002091020190600090565b634e487b7160e01b600052603260045260246000fd5b1561210e57565b60405162461bcd60e51b81526020600482015260096024820152682737ba1037bbb732b960b91b6044820152606490fd5b919082018092116118d957565b908160209103126101b3575180151581036101b35790565b60008181526020818152604080832033845290915290205460ff16156121875750565b63e2517d3f60e01b6000523360045260245260446000fd5b6000818152602081815260408083206001600160a01b038616845290915290205460ff16612223576000818152602081815260408083206001600160a01b0395909516808452949091528120805460ff19166001179055339291907f2f8788117e7eff1d82e926ec794901d17c78024a50270940304540a733656f0d9080a4600190565b5050600090565b6000818152602081815260408083206001600160a01b038616845290915290205460ff1615612223576000818152602081815260408083206001600160a01b0395909516808452949091528120805460ff19169055339291907ff6391f5c32d9c69d2a47ea670b442974b53935d1edc7fd64eb21e047a839171b9080a4600190565b60ff600154166122b857565b63d93c066560e01b60005260046000fd5b60028054146122d85760028055565b633ee5aeb560e01b60005260046000fd5b60005b8381106122fc5750506000910152565b81810151838201526020016122ec565b9081518110156120f1570160200190565b906000602091828151910182855af1156103c6576000513d61236f57506001600160a01b0381163b155b61234e5750565b635274afe760e01b60009081526001600160a01b0391909116600452602490fd5b6001141561234756fead3228b676f7d3cd4284a5443f17f1962b36e491b30a40b2405849e597ba5fb5a2646970667358221220de6948634df64e5a1d83036ff5ba4681d03788b674941f85f9bada412322da9c64736f6c634300081c00332f8788117e7eff1d82e926ec794901d17c78024a50270940304540a733656f0de84508f2c7fa9c351146748b3025cb78b45df37d868e48c6a75102fecdeee645ad3228b676f7d3cd4284a5443f17f1962b36e491b30a40b2405849e597ba5fb5",
          "opcodes": "PUSH2 0x120 DUP1 PUSH1 0x40 MSTORE CALLVALUE PUSH2 0x36D JUMPI PUSH1 0xC0 DUP2 PUSH2 0x29C9 DUP1 CODESIZE SUB DUP1 SWAP2 PUSH2 0x20 DUP3 DUP6 PUSH2 0x421 JUMP JUMPDEST DUP4 CODECOPY DUP2 ADD SUB SLT PUSH2 0x36D JUMPI PUSH2 0x33 DUP2 PUSH2 0x45A JUMP JUMPDEST PUSH2 0x3F PUSH1 0x20 DUP4 ADD PUSH2 0x45A JUMP JUMPDEST PUSH2 0x4B PUSH1 0x40 DUP5 ADD PUSH2 0x45A JUMP JUMPDEST SWAP3 PUSH2 0x58 PUSH1 0x60 DUP3 ADD PUSH2 0x45A JUMP JUMPDEST SWAP2 PUSH1 0xA0 PUSH2 0x67 PUSH1 0x80 DUP5 ADD PUSH2 0x45A JUMP JUMPDEST SWAP3 ADD MLOAD PUSH1 0x1 PUSH1 0x2 SSTORE SWAP4 PUSH1 0x1 PUSH1 0x1 PUSH1 0xA0 SHL SUB DUP2 AND ISZERO ISZERO DUP1 PUSH2 0x40F JUMPI JUMPDEST DUP1 PUSH2 0x3FD JUMPI JUMPDEST DUP1 PUSH2 0x3EB JUMPI JUMPDEST ISZERO PUSH2 0x3B4 JUMPI PUSH1 0x80 MSTORE PUSH1 0xA0 MSTORE PUSH1 0xE0 MSTORE PUSH1 0x3 DUP1 SLOAD PUSH1 0x1 PUSH1 0x1 PUSH1 0xA0 SHL SUB NOT AND PUSH1 0x1 PUSH1 0x1 PUSH1 0xA0 SHL SUB DUP4 AND SWAP1 DUP2 OR SWAP1 SWAP2 SSTORE PUSH1 0x40 MLOAD PUSH4 0xC45A0155 PUSH1 0xE0 SHL DUP2 MSTORE SWAP1 PUSH1 0x20 SWAP1 DUP3 SWAP1 PUSH1 0x4 SWAP1 DUP3 SWAP1 GAS STATICCALL SWAP1 DUP2 ISZERO PUSH2 0x2CF JUMPI PUSH1 0x0 SWAP2 PUSH2 0x37A JUMPI JUMPDEST POP PUSH1 0x80 MLOAD PUSH1 0xA0 MLOAD PUSH1 0x40 MLOAD PUSH4 0xE6A43905 PUSH1 0xE0 SHL DUP2 MSTORE PUSH1 0x1 PUSH1 0x1 PUSH1 0xA0 SHL SUB SWAP3 DUP4 AND PUSH1 0x4 DUP3 ADD MSTORE SWAP1 DUP3 AND PUSH1 0x24 DUP3 ADD MSTORE SWAP2 PUSH1 0x20 SWAP2 DUP4 SWAP2 PUSH1 0x44 SWAP2 DUP4 SWAP2 AND GAS STATICCALL SWAP1 DUP2 ISZERO PUSH2 0x2CF JUMPI PUSH1 0x0 SWAP2 PUSH2 0x33B JUMPI JUMPDEST POP PUSH1 0xC0 DUP2 SWAP1 MSTORE PUSH1 0x1 PUSH1 0x1 PUSH1 0xA0 SHL SUB AND ISZERO PUSH2 0x2F6 JUMPI PUSH1 0x80 MLOAD PUSH1 0x40 MLOAD PUSH4 0x95EA7B3 PUSH1 0xE0 SHL DUP2 MSTORE PUSH1 0x1 PUSH1 0x1 PUSH1 0xA0 SHL SUB DUP4 DUP2 AND PUSH1 0x4 DUP4 ADD MSTORE PUSH1 0x0 NOT PUSH1 0x24 DUP4 ADD MSTORE SWAP1 SWAP2 PUSH1 0x20 SWAP2 DUP4 SWAP2 PUSH1 0x44 SWAP2 DUP4 SWAP2 PUSH1 0x0 SWAP2 AND GAS CALL DUP1 ISZERO PUSH2 0x2CF JUMPI PUSH1 0x0 SWAP3 PUSH1 0x20 SWAP3 PUSH2 0x1CB SWAP3 PUSH2 0x2DB JUMPI JUMPDEST POP PUSH1 0xA0 MLOAD PUSH1 0x40 MLOAD PUSH4 0x95EA7B3 PUSH1 0xE0 SHL DUP2 MSTORE PUSH1 0x1 PUSH1 0x1 PUSH1 0xA0 SHL SUB SWAP3 DUP4 AND PUSH1 0x4 DUP3 ADD MSTORE PUSH1 0x0 NOT PUSH1 0x24 DUP3 ADD MSTORE SWAP5 DUP6 SWAP4 SWAP2 SWAP1 SWAP3 AND SWAP2 DUP4 SWAP2 DUP3 SWAP1 PUSH1 0x44 DUP3 ADD SWAP1 JUMP JUMPDEST SUB SWAP3 GAS CALL DUP1 ISZERO PUSH2 0x2CF JUMPI PUSH2 0x2A2 JUMPI JUMPDEST POP PUSH2 0x1E4 CALLER PUSH2 0x486 JUMP JUMPDEST POP PUSH2 0x1EE CALLER PUSH2 0x502 JUMP JUMPDEST POP PUSH2 0x100 MSTORE PUSH1 0x4 DUP1 SLOAD PUSH1 0x1 PUSH1 0x1 PUSH1 0xA0 SHL SUB NOT AND PUSH1 0x1 PUSH1 0x1 PUSH1 0xA0 SHL SUB SWAP3 SWAP1 SWAP3 AND SWAP2 SWAP1 SWAP2 OR SWAP1 SSTORE PUSH8 0xDE0B6B3A7640000 PUSH1 0x5 SSTORE PUSH1 0x40 MLOAD PUSH2 0x23CE SWAP1 DUP2 PUSH2 0x59B DUP3 CODECOPY PUSH1 0x80 MLOAD DUP2 DUP2 DUP2 PUSH2 0x2E8 ADD MSTORE PUSH2 0x1389 ADD MSTORE PUSH1 0xA0 MLOAD DUP2 DUP2 DUP2 PUSH2 0x453 ADD MSTORE DUP2 DUP2 PUSH2 0x782 ADD MSTORE DUP2 DUP2 PUSH2 0xF47 ADD MSTORE DUP2 DUP2 PUSH2 0x13B7 ADD MSTORE PUSH2 0x1F0D ADD MSTORE PUSH1 0xC0 MLOAD DUP2 DUP2 DUP2 PUSH2 0x5AC ADD MSTORE DUP2 DUP2 PUSH2 0x14DA ADD MSTORE DUP2 DUP2 PUSH2 0x1B87 ADD MSTORE PUSH2 0x1E87 ADD MSTORE PUSH1 0xE0 MLOAD DUP2 DUP2 DUP2 PUSH2 0x1119 ADD MSTORE PUSH2 0x14A2 ADD MSTORE PUSH2 0x100 MLOAD DUP2 DUP2 DUP2 PUSH2 0x268 ADD MSTORE PUSH2 0x910 ADD MSTORE RETURN JUMPDEST PUSH2 0x2C3 SWAP1 PUSH1 0x20 RETURNDATASIZE PUSH1 0x20 GT PUSH2 0x2C8 JUMPI JUMPDEST PUSH2 0x2BB DUP2 DUP4 PUSH2 0x421 JUMP JUMPDEST DUP2 ADD SWAP1 PUSH2 0x46E JUMP JUMPDEST PUSH2 0x1DA JUMP JUMPDEST POP RETURNDATASIZE PUSH2 0x2B1 JUMP JUMPDEST PUSH1 0x40 MLOAD RETURNDATASIZE PUSH1 0x0 DUP3 RETURNDATACOPY RETURNDATASIZE SWAP1 REVERT JUMPDEST PUSH2 0x2F1 SWAP1 DUP5 RETURNDATASIZE DUP7 GT PUSH2 0x2C8 JUMPI PUSH2 0x2BB DUP2 DUP4 PUSH2 0x421 JUMP JUMPDEST PUSH2 0x18F JUMP JUMPDEST PUSH1 0x40 MLOAD PUSH3 0x461BCD PUSH1 0xE5 SHL DUP2 MSTORE PUSH1 0x20 PUSH1 0x4 DUP3 ADD MSTORE PUSH1 0x16 PUSH1 0x24 DUP3 ADD MSTORE PUSH32 0x4C50207061697220646F6573206E6F7420657869737400000000000000000000 PUSH1 0x44 DUP3 ADD MSTORE PUSH1 0x64 SWAP1 REVERT JUMPDEST SWAP1 POP PUSH1 0x20 DUP2 RETURNDATASIZE PUSH1 0x20 GT PUSH2 0x372 JUMPI JUMPDEST DUP2 PUSH2 0x356 PUSH1 0x20 SWAP4 DUP4 PUSH2 0x421 JUMP JUMPDEST DUP2 ADD SUB SLT PUSH2 0x36D JUMPI PUSH2 0x367 SWAP1 PUSH2 0x45A JUMP JUMPDEST CODESIZE PUSH2 0x12C JUMP JUMPDEST PUSH1 0x0 DUP1 REVERT JUMPDEST RETURNDATASIZE SWAP2 POP PUSH2 0x349 JUMP JUMPDEST SWAP1 POP PUSH1 0x20 DUP2 RETURNDATASIZE PUSH1 0x20 GT PUSH2 0x3AC JUMPI JUMPDEST DUP2 PUSH2 0x395 PUSH1 0x20 SWAP4 DUP4 PUSH2 0x421 JUMP JUMPDEST DUP2 ADD SUB SLT PUSH2 0x36D JUMPI PUSH2 0x3A6 SWAP1 PUSH2 0x45A JUMP JUMPDEST CODESIZE PUSH2 0xE3 JUMP JUMPDEST RETURNDATASIZE SWAP2 POP PUSH2 0x388 JUMP JUMPDEST PUSH1 0x40 MLOAD PUSH3 0x461BCD PUSH1 0xE5 SHL DUP2 MSTORE PUSH1 0x20 PUSH1 0x4 DUP3 ADD MSTORE PUSH1 0xF PUSH1 0x24 DUP3 ADD MSTORE PUSH15 0x496E76616C69642061646472657373 PUSH1 0x88 SHL PUSH1 0x44 DUP3 ADD MSTORE PUSH1 0x64 SWAP1 REVERT JUMPDEST POP PUSH1 0x1 PUSH1 0x1 PUSH1 0xA0 SHL SUB DUP4 AND ISZERO ISZERO PUSH2 0x8E JUMP JUMPDEST POP PUSH1 0x1 PUSH1 0x1 PUSH1 0xA0 SHL SUB DUP5 AND ISZERO ISZERO PUSH2 0x88 JUMP JUMPDEST POP PUSH1 0x1 PUSH1 0x1 PUSH1 0xA0 SHL SUB DUP3 AND ISZERO ISZERO PUSH2 0x82 JUMP JUMPDEST PUSH1 0x1F SWAP1 SWAP2 ADD PUSH1 0x1F NOT AND DUP2 ADD SWAP1 PUSH1 0x1 PUSH1 0x1 PUSH1 0x40 SHL SUB DUP3 GT SWAP1 DUP3 LT OR PUSH2 0x444 JUMPI PUSH1 0x40 MSTORE JUMP JUMPDEST PUSH4 0x4E487B71 PUSH1 0xE0 SHL PUSH1 0x0 MSTORE PUSH1 0x41 PUSH1 0x4 MSTORE PUSH1 0x24 PUSH1 0x0 REVERT JUMPDEST MLOAD SWAP1 PUSH1 0x1 PUSH1 0x1 PUSH1 0xA0 SHL SUB DUP3 AND DUP3 SUB PUSH2 0x36D JUMPI JUMP JUMPDEST SWAP1 DUP2 PUSH1 0x20 SWAP2 SUB SLT PUSH2 0x36D JUMPI MLOAD DUP1 ISZERO ISZERO DUP2 SUB PUSH2 0x36D JUMPI SWAP1 JUMP JUMPDEST PUSH1 0x1 PUSH1 0x1 PUSH1 0xA0 SHL SUB DUP2 AND PUSH1 0x0 SWAP1 DUP2 MSTORE PUSH1 0x0 DUP1 MLOAD PUSH1 0x20 PUSH2 0x29A9 DUP4 CODECOPY DUP2 MLOAD SWAP2 MSTORE PUSH1 0x20 MSTORE PUSH1 0x40 SWAP1 KECCAK256 SLOAD PUSH1 0xFF AND PUSH2 0x4FC JUMPI PUSH1 0x1 PUSH1 0x1 PUSH1 0xA0 SHL SUB AND PUSH1 0x0 DUP2 DUP2 MSTORE PUSH1 0x0 DUP1 MLOAD PUSH1 0x20 PUSH2 0x29A9 DUP4 CODECOPY DUP2 MLOAD SWAP2 MSTORE PUSH1 0x20 MSTORE PUSH1 0x40 DUP2 KECCAK256 DUP1 SLOAD PUSH1 0xFF NOT AND PUSH1 0x1 OR SWAP1 SSTORE CALLER SWAP2 SWAP1 PUSH1 0x0 DUP1 MLOAD PUSH1 0x20 PUSH2 0x2969 DUP4 CODECOPY DUP2 MLOAD SWAP2 MSTORE DUP2 DUP1 LOG4 PUSH1 0x1 SWAP1 JUMP JUMPDEST POP PUSH1 0x0 SWAP1 JUMP JUMPDEST PUSH1 0x1 PUSH1 0x1 PUSH1 0xA0 SHL SUB DUP2 AND PUSH1 0x0 SWAP1 DUP2 MSTORE PUSH1 0x0 DUP1 MLOAD PUSH1 0x20 PUSH2 0x2989 DUP4 CODECOPY DUP2 MLOAD SWAP2 MSTORE PUSH1 0x20 MSTORE PUSH1 0x40 SWAP1 KECCAK256 SLOAD PUSH1 0xFF AND PUSH2 0x4FC JUMPI PUSH1 0x1 PUSH1 0x1 PUSH1 0xA0 SHL SUB AND PUSH1 0x0 DUP2 DUP2 MSTORE PUSH1 0x0 DUP1 MLOAD PUSH1 0x20 PUSH2 0x2989 DUP4 CODECOPY DUP2 MLOAD SWAP2 MSTORE PUSH1 0x20 MSTORE PUSH1 0x40 DUP2 KECCAK256 DUP1 SLOAD PUSH1 0xFF NOT AND PUSH1 0x1 OR SWAP1 SSTORE CALLER SWAP2 SWAP1 PUSH32 0x241ECF16D79D0F8DBFB92CBC07FE17840425976CF0667F022FE9877CAA831B08 SWAP1 PUSH1 0x0 DUP1 MLOAD PUSH1 0x20 PUSH2 0x2969 DUP4 CODECOPY DUP2 MLOAD SWAP2 MSTORE SWAP1 DUP1 LOG4 PUSH1 0x1 SWAP1 JUMP INVALID PUSH1 0x80 DUP1 PUSH1 0x40 MSTORE PUSH1 0x4 CALLDATASIZE LT ISZERO PUSH2 0x13 JUMPI PUSH1 0x0 DUP1 REVERT JUMPDEST PUSH1 0x0 CALLDATALOAD PUSH1 0xE0 SHR SWAP1 DUP2 PUSH4 0x1FFC9A7 EQ PUSH2 0x1DC3 JUMPI POP DUP1 PUSH4 0x902F1AC EQ PUSH2 0x1D9C JUMPI DUP1 PUSH4 0x9471528 EQ PUSH2 0x1D7E JUMPI DUP1 PUSH4 0x11470103 EQ PUSH2 0x1D20 JUMPI DUP1 PUSH4 0x1CDF2DC3 EQ PUSH2 0x1AE2 JUMPI DUP1 PUSH4 0x248A9CA3 EQ PUSH2 0x1AAD JUMPI DUP1 PUSH4 0x2F2FF15D EQ PUSH2 0x1A6D JUMPI DUP1 PUSH4 0x36568ABE EQ PUSH2 0x1A27 JUMPI DUP1 PUSH4 0x3B57E2BC EQ PUSH2 0x11D2 JUMPI DUP1 PUSH4 0x3F4BA83A EQ PUSH2 0x1148 JUMPI DUP1 PUSH4 0x449B5392 EQ PUSH2 0x1103 JUMPI DUP1 PUSH4 0x49E6B62C EQ PUSH2 0x1000 JUMPI DUP1 PUSH4 0x4E46D259 EQ PUSH2 0xE0D JUMPI DUP1 PUSH4 0x5585A6FA EQ PUSH2 0xA96 JUMPI DUP1 PUSH4 0x5C975ABB EQ PUSH2 0xA73 JUMPI DUP1 PUSH4 0x6EBA86A2 EQ PUSH2 0x88A JUMPI DUP1 PUSH4 0x721C8C0A EQ PUSH2 0x7B1 JUMPI DUP1 PUSH4 0x77B330C9 EQ PUSH2 0x76C JUMPI DUP1 PUSH4 0x78BB5DBD EQ PUSH2 0x6A2 JUMPI DUP1 PUSH4 0x8456CB59 EQ PUSH2 0x628 JUMPI DUP1 PUSH4 0x91D14854 EQ PUSH2 0x5DB JUMPI DUP1 PUSH4 0x93A013E0 EQ PUSH2 0x596 JUMPI DUP1 PUSH4 0xA217FDDF EQ PUSH2 0x57A JUMPI DUP1 PUSH4 0xABD3F612 EQ PUSH2 0x537 JUMPI DUP1 PUSH4 0xB0F9006A EQ PUSH2 0x3D2 JUMPI DUP1 PUSH4 0xBC339809 EQ PUSH2 0x317 JUMPI DUP1 PUSH4 0xD344F1B9 EQ PUSH2 0x2D2 JUMPI DUP1 PUSH4 0xD547741F EQ PUSH2 0x28B JUMPI DUP1 PUSH4 0xDB7736CB EQ PUSH2 0x250 JUMPI DUP1 PUSH4 0xEC87621C EQ PUSH2 0x215 JUMPI DUP1 PUSH4 0xEDC73DBC EQ PUSH2 0x1EC JUMPI DUP1 PUSH4 0xF4627A11 EQ PUSH2 0x1B8 JUMPI PUSH4 0xF887EA40 EQ PUSH2 0x18A JUMPI PUSH1 0x0 DUP1 REVERT JUMPDEST CALLVALUE PUSH2 0x1B3 JUMPI PUSH1 0x0 CALLDATASIZE PUSH1 0x3 NOT ADD SLT PUSH2 0x1B3 JUMPI PUSH1 0x3 SLOAD PUSH1 0x40 MLOAD PUSH1 0x1 PUSH1 0x1 PUSH1 0xA0 SHL SUB SWAP1 SWAP2 AND DUP2 MSTORE PUSH1 0x20 SWAP1 RETURN JUMPDEST PUSH1 0x0 DUP1 REVERT JUMPDEST CALLVALUE PUSH2 0x1B3 JUMPI PUSH1 0x20 CALLDATASIZE PUSH1 0x3 NOT ADD SLT PUSH2 0x1B3 JUMPI PUSH1 0x4 CALLDATALOAD PUSH1 0x0 MSTORE PUSH1 0x7 PUSH1 0x20 MSTORE PUSH1 0x20 PUSH1 0x1 DUP1 PUSH1 0xA0 SHL SUB PUSH1 0x40 PUSH1 0x0 KECCAK256 SLOAD AND PUSH1 0x40 MLOAD SWAP1 DUP2 MSTORE RETURN JUMPDEST CALLVALUE PUSH2 0x1B3 JUMPI PUSH1 0x0 CALLDATASIZE PUSH1 0x3 NOT ADD SLT PUSH2 0x1B3 JUMPI PUSH1 0x4 SLOAD PUSH1 0x40 MLOAD PUSH1 0x1 PUSH1 0x1 PUSH1 0xA0 SHL SUB SWAP1 SWAP2 AND DUP2 MSTORE PUSH1 0x20 SWAP1 RETURN JUMPDEST CALLVALUE PUSH2 0x1B3 JUMPI PUSH1 0x0 CALLDATASIZE PUSH1 0x3 NOT ADD SLT PUSH2 0x1B3 JUMPI PUSH1 0x20 PUSH1 0x40 MLOAD PUSH32 0x241ECF16D79D0F8DBFB92CBC07FE17840425976CF0667F022FE9877CAA831B08 DUP2 MSTORE RETURN JUMPDEST CALLVALUE PUSH2 0x1B3 JUMPI PUSH1 0x0 CALLDATASIZE PUSH1 0x3 NOT ADD SLT PUSH2 0x1B3 JUMPI PUSH1 0x20 PUSH1 0x40 MLOAD PUSH32 0x0 DUP2 MSTORE RETURN JUMPDEST CALLVALUE PUSH2 0x1B3 JUMPI PUSH1 0x40 CALLDATASIZE PUSH1 0x3 NOT ADD SLT PUSH2 0x1B3 JUMPI PUSH2 0x2D0 PUSH1 0x4 CALLDATALOAD PUSH2 0x2AA PUSH2 0x1E16 JUMP JUMPDEST SWAP1 PUSH2 0x2CB PUSH2 0x2C6 DUP3 PUSH1 0x0 MSTORE PUSH1 0x0 PUSH1 0x20 MSTORE PUSH1 0x1 PUSH1 0x40 PUSH1 0x0 KECCAK256 ADD SLOAD SWAP1 JUMP JUMPDEST PUSH2 0x2164 JUMP JUMPDEST PUSH2 0x222A JUMP JUMPDEST STOP JUMPDEST CALLVALUE PUSH2 0x1B3 JUMPI PUSH1 0x0 CALLDATASIZE PUSH1 0x3 NOT ADD SLT PUSH2 0x1B3 JUMPI PUSH1 0x40 MLOAD PUSH32 0x0 PUSH1 0x1 PUSH1 0x1 PUSH1 0xA0 SHL SUB AND DUP2 MSTORE PUSH1 0x20 SWAP1 RETURN JUMPDEST CALLVALUE PUSH2 0x1B3 JUMPI PUSH1 0x20 CALLDATASIZE PUSH1 0x3 NOT ADD SLT PUSH2 0x1B3 JUMPI PUSH2 0x376 PUSH1 0x20 PUSH2 0x335 PUSH2 0x1E78 JUMP JUMPDEST PUSH1 0x3 SLOAD PUSH1 0x40 MLOAD PUSH4 0x2B58577B PUSH1 0xE2 SHL DUP2 MSTORE PUSH1 0x4 DUP1 CALLDATALOAD SWAP1 DUP3 ADD MSTORE PUSH1 0x24 DUP2 ADD SWAP4 SWAP1 SWAP4 MSTORE PUSH1 0x44 DUP4 ADD SWAP2 SWAP1 SWAP2 MSTORE SWAP1 SWAP3 DUP4 SWAP2 PUSH1 0x1 PUSH1 0x1 PUSH1 0xA0 SHL SUB AND SWAP1 DUP3 SWAP1 DUP2 SWAP1 PUSH1 0x64 DUP3 ADD SWAP1 JUMP JUMPDEST SUB SWAP2 GAS STATICCALL DUP1 ISZERO PUSH2 0x3C6 JUMPI PUSH1 0x0 SWAP1 PUSH2 0x393 JUMPI JUMPDEST PUSH1 0x20 SWAP1 PUSH1 0x40 MLOAD SWAP1 DUP2 MSTORE RETURN JUMPDEST POP PUSH1 0x20 DUP2 RETURNDATASIZE PUSH1 0x20 GT PUSH2 0x3BE JUMPI JUMPDEST DUP2 PUSH2 0x3AD PUSH1 0x20 SWAP4 DUP4 PUSH2 0x1E42 JUMP JUMPDEST DUP2 ADD SUB SLT PUSH2 0x1B3 JUMPI PUSH1 0x20 SWAP1 MLOAD PUSH2 0x388 JUMP JUMPDEST RETURNDATASIZE SWAP2 POP PUSH2 0x3A0 JUMP JUMPDEST PUSH1 0x40 MLOAD RETURNDATASIZE PUSH1 0x0 DUP3 RETURNDATACOPY RETURNDATASIZE SWAP1 REVERT JUMPDEST CALLVALUE PUSH2 0x1B3 JUMPI PUSH1 0x20 CALLDATASIZE PUSH1 0x3 NOT ADD SLT PUSH2 0x1B3 JUMPI PUSH1 0x4 CALLDATALOAD PUSH2 0x3EE PUSH2 0x22C9 JUMP JUMPDEST PUSH2 0x3F6 PUSH2 0x22AC JUMP JUMPDEST DUP1 ISZERO PUSH2 0x501 JUMPI CALLER PUSH1 0x0 MSTORE PUSH1 0x6 PUSH1 0x20 MSTORE PUSH1 0x1 PUSH1 0x40 PUSH1 0x0 KECCAK256 ADD DUP1 SLOAD DUP3 DUP2 LT PUSH2 0x4BC JUMPI DUP3 PUSH2 0x420 SWAP2 PUSH2 0x1FDB JUMP JUMPDEST SWAP1 SSTORE PUSH1 0x40 MLOAD PUSH4 0xA9059CBB PUSH1 0xE0 SHL PUSH1 0x20 DUP3 ADD MSTORE CALLER PUSH1 0x24 DUP3 ADD MSTORE PUSH1 0x44 DUP1 DUP3 ADD DUP4 SWAP1 MSTORE DUP2 MSTORE PUSH2 0x480 SWAP1 PUSH2 0x451 PUSH1 0x64 DUP3 PUSH2 0x1E42 JUMP JUMPDEST PUSH32 0x0 PUSH1 0x1 PUSH1 0x1 PUSH1 0xA0 SHL SUB AND PUSH2 0x231D JUMP JUMPDEST PUSH1 0x40 MLOAD SWAP1 DUP2 MSTORE PUSH32 0x4A871023DDAB2A4D3BFCFEEECA493E98D3EF746B67DB88347AD53D14F6A532BD PUSH1 0x20 CALLER SWAP3 LOG2 PUSH1 0x1 PUSH1 0x2 SSTORE PUSH1 0x20 PUSH1 0x40 MLOAD PUSH1 0x1 DUP2 MSTORE RETURN JUMPDEST PUSH1 0x40 MLOAD PUSH3 0x461BCD PUSH1 0xE5 SHL DUP2 MSTORE PUSH1 0x20 PUSH1 0x4 DUP3 ADD MSTORE PUSH1 0x19 PUSH1 0x24 DUP3 ADD MSTORE PUSH32 0x496E73756666696369656E742062616C616E6365205553445400000000000000 PUSH1 0x44 DUP3 ADD MSTORE PUSH1 0x64 SWAP1 REVERT JUMPDEST PUSH1 0x40 MLOAD PUSH3 0x461BCD PUSH1 0xE5 SHL DUP2 MSTORE PUSH1 0x20 PUSH1 0x4 DUP3 ADD MSTORE PUSH1 0xE PUSH1 0x24 DUP3 ADD MSTORE PUSH14 0x1A5B9D985B1A5908185B5BDD5B9D PUSH1 0x92 SHL PUSH1 0x44 DUP3 ADD MSTORE PUSH1 0x64 SWAP1 REVERT JUMPDEST CALLVALUE PUSH2 0x1B3 JUMPI PUSH1 0x20 CALLDATASIZE PUSH1 0x3 NOT ADD SLT PUSH2 0x1B3 JUMPI PUSH1 0x1 PUSH1 0x1 PUSH1 0xA0 SHL SUB PUSH2 0x558 PUSH2 0x1E2C JUMP JUMPDEST AND PUSH1 0x0 MSTORE PUSH1 0x6 PUSH1 0x20 MSTORE PUSH1 0x40 DUP1 PUSH1 0x0 KECCAK256 PUSH1 0x1 DUP2 SLOAD SWAP2 ADD SLOAD DUP3 MLOAD SWAP2 DUP3 MSTORE PUSH1 0x20 DUP3 ADD MSTORE RETURN JUMPDEST CALLVALUE PUSH2 0x1B3 JUMPI PUSH1 0x0 CALLDATASIZE PUSH1 0x3 NOT ADD SLT PUSH2 0x1B3 JUMPI PUSH1 0x20 PUSH1 0x40 MLOAD PUSH1 0x0 DUP2 MSTORE RETURN JUMPDEST CALLVALUE PUSH2 0x1B3 JUMPI PUSH1 0x0 CALLDATASIZE PUSH1 0x3 NOT ADD SLT PUSH2 0x1B3 JUMPI PUSH1 0x40 MLOAD PUSH32 0x0 PUSH1 0x1 PUSH1 0x1 PUSH1 0xA0 SHL SUB AND DUP2 MSTORE PUSH1 0x20 SWAP1 RETURN JUMPDEST CALLVALUE PUSH2 0x1B3 JUMPI PUSH1 0x40 CALLDATASIZE PUSH1 0x3 NOT ADD SLT PUSH2 0x1B3 JUMPI PUSH2 0x5F4 PUSH2 0x1E16 JUMP JUMPDEST PUSH1 0x4 CALLDATALOAD PUSH1 0x0 MSTORE PUSH1 0x0 PUSH1 0x20 MSTORE PUSH1 0x40 PUSH1 0x0 KECCAK256 SWAP1 PUSH1 0x1 DUP1 PUSH1 0xA0 SHL SUB AND PUSH1 0x0 MSTORE PUSH1 0x20 MSTORE PUSH1 0x20 PUSH1 0xFF PUSH1 0x40 PUSH1 0x0 KECCAK256 SLOAD AND PUSH1 0x40 MLOAD SWAP1 ISZERO ISZERO DUP2 MSTORE RETURN JUMPDEST CALLVALUE PUSH2 0x1B3 JUMPI PUSH1 0x0 CALLDATASIZE PUSH1 0x3 NOT ADD SLT PUSH2 0x1B3 JUMPI CALLER PUSH1 0x0 SWAP1 DUP2 MSTORE PUSH1 0x0 DUP1 MLOAD PUSH1 0x20 PUSH2 0x2379 DUP4 CODECOPY DUP2 MLOAD SWAP2 MSTORE PUSH1 0x20 MSTORE PUSH1 0x40 SWAP1 KECCAK256 SLOAD PUSH2 0x662 SWAP1 PUSH1 0xFF AND PUSH2 0x2107 JUMP JUMPDEST PUSH2 0x66A PUSH2 0x22AC JUMP JUMPDEST PUSH1 0x1 PUSH1 0xFF NOT DUP2 SLOAD AND OR PUSH1 0x1 SSTORE PUSH32 0x62E78CEA01BEE320CD4E420270B5EA74000D11B0C9F74754EBDBFC544B05A258 PUSH1 0x20 PUSH1 0x40 MLOAD CALLER DUP2 MSTORE LOG1 STOP JUMPDEST CALLVALUE PUSH2 0x1B3 JUMPI PUSH1 0x20 CALLDATASIZE PUSH1 0x3 NOT ADD SLT PUSH2 0x1B3 JUMPI CALLER PUSH1 0x0 SWAP1 DUP2 MSTORE PUSH1 0x0 DUP1 MLOAD PUSH1 0x20 PUSH2 0x2379 DUP4 CODECOPY DUP2 MLOAD SWAP2 MSTORE PUSH1 0x20 MSTORE PUSH1 0x40 SWAP1 KECCAK256 SLOAD PUSH1 0x4 CALLDATALOAD SWAP1 PUSH2 0x6E0 SWAP1 PUSH1 0xFF AND PUSH2 0x2107 JUMP JUMPDEST DUP1 ISZERO PUSH2 0x71D JUMPI PUSH32 0xB29DB3ED4BE00BB9125746733A49FA8E4BC0D6C1CBA2D0E3C0B3D72801C27527 PUSH1 0x40 PUSH1 0x5 SLOAD DUP2 MLOAD SWAP1 DUP2 MSTORE DUP4 PUSH1 0x20 DUP3 ADD MSTORE LOG1 PUSH1 0x5 SSTORE STOP JUMPDEST PUSH1 0x40 MLOAD PUSH3 0x461BCD PUSH1 0xE5 SHL DUP2 MSTORE PUSH1 0x20 PUSH1 0x4 DUP3 ADD MSTORE PUSH1 0x21 PUSH1 0x24 DUP3 ADD MSTORE PUSH32 0x4D696E20616D6F756E74206D7573742062652067726561746572207468616E20 PUSH1 0x44 DUP3 ADD MSTORE PUSH1 0x3 PUSH1 0xFC SHL PUSH1 0x64 DUP3 ADD MSTORE PUSH1 0x84 SWAP1 REVERT JUMPDEST CALLVALUE PUSH2 0x1B3 JUMPI PUSH1 0x0 CALLDATASIZE PUSH1 0x3 NOT ADD SLT PUSH2 0x1B3 JUMPI PUSH1 0x40 MLOAD PUSH32 0x0 PUSH1 0x1 PUSH1 0x1 PUSH1 0xA0 SHL SUB AND DUP2 MSTORE PUSH1 0x20 SWAP1 RETURN JUMPDEST CALLVALUE PUSH2 0x1B3 JUMPI PUSH1 0x20 CALLDATASIZE PUSH1 0x3 NOT ADD SLT PUSH2 0x1B3 JUMPI PUSH2 0x7CA PUSH2 0x1E2C JUMP JUMPDEST CALLER PUSH1 0x0 SWAP1 DUP2 MSTORE PUSH1 0x0 DUP1 MLOAD PUSH1 0x20 PUSH2 0x2379 DUP4 CODECOPY DUP2 MLOAD SWAP2 MSTORE PUSH1 0x20 MSTORE PUSH1 0x40 SWAP1 KECCAK256 SLOAD PUSH2 0x7F3 SWAP1 PUSH1 0xFF AND PUSH2 0x2107 JUMP JUMPDEST PUSH1 0x1 PUSH1 0x1 PUSH1 0xA0 SHL SUB AND DUP1 ISZERO PUSH2 0x845 JUMPI PUSH1 0x4 SLOAD DUP2 PUSH1 0x1 PUSH1 0x1 PUSH1 0xA0 SHL SUB DUP3 AND PUSH32 0xEC54B369953ED98493762CC0B6B40FA246AB8F4A0F507F6C268B9098E0FB1D50 PUSH1 0x0 DUP1 LOG3 PUSH1 0x1 PUSH1 0x1 PUSH1 0xA0 SHL SUB NOT AND OR PUSH1 0x4 SSTORE STOP JUMPDEST PUSH1 0x40 MLOAD PUSH3 0x461BCD PUSH1 0xE5 SHL DUP2 MSTORE PUSH1 0x20 PUSH1 0x4 DUP3 ADD MSTORE PUSH1 0x1B PUSH1 0x24 DUP3 ADD MSTORE PUSH32 0x496E76616C69642050696F6E6542726964676520616464726573730000000000 PUSH1 0x44 DUP3 ADD MSTORE PUSH1 0x64 SWAP1 REVERT JUMPDEST CALLVALUE PUSH2 0x1B3 JUMPI PUSH1 0x20 CALLDATASIZE PUSH1 0x3 NOT ADD SLT PUSH2 0x1B3 JUMPI PUSH1 0x4 CALLDATALOAD PUSH2 0x8A6 PUSH2 0x22C9 JUMP JUMPDEST PUSH2 0x8AE PUSH2 0x22AC JUMP JUMPDEST DUP1 ISZERO PUSH2 0xA35 JUMPI PUSH1 0x5 SLOAD DUP2 LT PUSH2 0x9F9 JUMPI CALLER PUSH1 0x0 MSTORE PUSH1 0x6 PUSH1 0x20 MSTORE PUSH1 0x40 PUSH1 0x0 KECCAK256 DUP1 SLOAD DUP3 DUP2 LT PUSH2 0x9B4 JUMPI DUP3 PUSH2 0x8DE SWAP2 PUSH2 0x1FDB JUMP JUMPDEST SWAP1 SSTORE PUSH1 0x0 PUSH1 0x20 PUSH1 0x1 DUP1 PUSH1 0xA0 SHL SUB PUSH1 0x4 SLOAD AND PUSH1 0x64 PUSH1 0x40 MLOAD DUP1 SWAP5 DUP2 SWAP4 PUSH4 0x65733D1 PUSH1 0xE3 SHL DUP4 MSTORE CALLER PUSH1 0x4 DUP5 ADD MSTORE DUP8 PUSH1 0x24 DUP5 ADD MSTORE PUSH32 0x0 PUSH1 0x44 DUP5 ADD MSTORE GAS CALL SWAP1 DUP2 ISZERO PUSH2 0x3C6 JUMPI PUSH1 0x0 SWAP2 PUSH2 0x982 JUMPI JUMPDEST POP PUSH1 0x40 MLOAD SWAP2 DUP3 MSTORE PUSH32 0xE97754E9280514BB5691C3DEE7EDEF6951965134BBE0BD8139A447208AACED02 PUSH1 0x20 CALLER SWAP4 LOG3 PUSH1 0x1 PUSH1 0x2 SSTORE PUSH1 0x20 PUSH1 0x40 MLOAD PUSH1 0x1 DUP2 MSTORE RETURN JUMPDEST SWAP1 POP PUSH1 0x20 DUP2 RETURNDATASIZE PUSH1 0x20 GT PUSH2 0x9AC JUMPI JUMPDEST DUP2 PUSH2 0x99D PUSH1 0x20 SWAP4 DUP4 PUSH2 0x1E42 JUMP JUMPDEST DUP2 ADD SUB SLT PUSH2 0x1B3 JUMPI MLOAD DUP3 PUSH2 0x945 JUMP JUMPDEST RETURNDATASIZE SWAP2 POP PUSH2 0x990 JUMP JUMPDEST PUSH1 0x40 MLOAD PUSH3 0x461BCD PUSH1 0xE5 SHL DUP2 MSTORE PUSH1 0x20 PUSH1 0x4 DUP3 ADD MSTORE PUSH1 0x18 PUSH1 0x24 DUP3 ADD MSTORE PUSH32 0x496E73756666696369656E742062616C616E63652050494F0000000000000000 PUSH1 0x44 DUP3 ADD MSTORE PUSH1 0x64 SWAP1 REVERT JUMPDEST PUSH1 0x40 MLOAD PUSH3 0x461BCD PUSH1 0xE5 SHL DUP2 MSTORE PUSH1 0x20 PUSH1 0x4 DUP3 ADD MSTORE PUSH1 0x14 PUSH1 0x24 DUP3 ADD MSTORE PUSH20 0x416D6F756E742062656C6F77206D696E696D756D PUSH1 0x60 SHL PUSH1 0x44 DUP3 ADD MSTORE PUSH1 0x64 SWAP1 REVERT JUMPDEST PUSH1 0x40 MLOAD PUSH3 0x461BCD PUSH1 0xE5 SHL DUP2 MSTORE PUSH1 0x20 PUSH1 0x4 DUP3 ADD MSTORE PUSH1 0x16 PUSH1 0x24 DUP3 ADD MSTORE PUSH22 0x416D6F756E742050494F206D757374206265203E203 PUSH1 0x54 SHL PUSH1 0x44 DUP3 ADD MSTORE PUSH1 0x64 SWAP1 REVERT JUMPDEST CALLVALUE PUSH2 0x1B3 JUMPI PUSH1 0x0 CALLDATASIZE PUSH1 0x3 NOT ADD SLT PUSH2 0x1B3 JUMPI PUSH1 0x20 PUSH1 0xFF PUSH1 0x1 SLOAD AND PUSH1 0x40 MLOAD SWAP1 ISZERO ISZERO DUP2 MSTORE RETURN JUMPDEST CALLVALUE PUSH2 0x1B3 JUMPI PUSH1 0xA0 CALLDATASIZE PUSH1 0x3 NOT ADD SLT PUSH2 0x1B3 JUMPI PUSH1 0x4 CALLDATALOAD PUSH2 0xAB2 PUSH2 0x1E16 JUMP JUMPDEST CALLER PUSH1 0x0 SWAP1 DUP2 MSTORE PUSH32 0xE84508F2C7FA9C351146748B3025CB78B45DF37D868E48C6A75102FECDEEE645 PUSH1 0x20 MSTORE PUSH1 0x40 SWAP1 KECCAK256 SLOAD PUSH1 0x44 CALLDATALOAD SWAP3 SWAP2 PUSH1 0x84 CALLDATALOAD SWAP2 PUSH1 0x64 CALLDATALOAD SWAP2 SWAP1 PUSH1 0xFF AND ISZERO PUSH2 0xDDA JUMPI PUSH2 0xAFF PUSH2 0x22AC JUMP JUMPDEST PUSH1 0x4 DUP1 SLOAD PUSH1 0x40 MLOAD PUSH4 0x5617249B PUSH1 0xE1 SHL DUP2 MSTORE SWAP2 DUP3 ADD DUP7 SWAP1 MSTORE PUSH1 0x20 SWAP1 DUP3 SWAP1 PUSH1 0x24 SWAP1 DUP3 SWAP1 PUSH1 0x1 PUSH1 0x1 PUSH1 0xA0 SHL SUB AND GAS STATICCALL SWAP1 DUP2 ISZERO PUSH2 0x3C6 JUMPI PUSH1 0x0 SWAP2 PUSH2 0xDAB JUMPI JUMPDEST POP ISZERO PUSH2 0xD66 JUMPI PUSH1 0x0 DUP5 DUP2 MSTORE PUSH1 0x7 PUSH1 0x20 MSTORE PUSH1 0x40 SWAP1 KECCAK256 SLOAD PUSH1 0x1 PUSH1 0x1 PUSH1 0xA0 SHL SUB AND PUSH2 0xD29 JUMPI DUP3 ISZERO PUSH2 0xCD9 JUMPI PUSH1 0x1 DUP1 PUSH1 0xA0 SHL SUB AND SWAP4 DUP5 PUSH1 0x0 MSTORE PUSH1 0x6 PUSH1 0x20 MSTORE PUSH1 0x40 PUSH1 0x0 KECCAK256 PUSH1 0x40 MLOAD SWAP4 PUSH1 0xC0 DUP6 ADD DUP6 DUP2 LT PUSH8 0xFFFFFFFFFFFFFFFF DUP3 GT OR PUSH2 0xCC3 JUMPI PUSH1 0x40 MSTORE DUP3 DUP6 MSTORE PUSH1 0x20 DUP6 ADD SWAP2 DUP5 DUP4 MSTORE PUSH1 0x40 DUP7 ADD SWAP6 PUSH1 0x0 DUP8 MSTORE PUSH1 0x60 DUP2 ADD SWAP1 PUSH1 0x0 DUP3 MSTORE PUSH1 0x80 DUP2 ADD PUSH1 0x0 DUP2 MSTORE PUSH1 0xA0 DUP3 ADD SWAP1 DUP6 DUP3 MSTORE DUP11 PUSH1 0x0 MSTORE PUSH1 0x7 PUSH1 0x20 MSTORE PUSH1 0x40 PUSH1 0x0 KECCAK256 DUP13 PUSH12 0xFFFFFFFFFFFFFFFFFFFFFFFF PUSH1 0xA0 SHL DUP3 SLOAD AND OR SWAP1 SSTORE PUSH1 0x3 DUP6 ADD DUP1 SLOAD DUP13 PUSH1 0x0 MSTORE PUSH1 0x4 DUP8 ADD PUSH1 0x20 MSTORE DUP1 PUSH1 0x40 PUSH1 0x0 KECCAK256 SSTORE PUSH9 0x10000000000000000 DUP2 LT ISZERO PUSH2 0xCC3 JUMPI PUSH2 0xC21 SWAP2 PUSH1 0x1 DUP3 ADD DUP2 SSTORE PUSH2 0x20D5 JUMP JUMPDEST SWAP5 SWAP1 SWAP5 PUSH2 0xCAD JUMPI PUSH32 0x57D14A62AF56A5926258BE60C622E5F0074A2DD18A33BD254821BD2A1F0E42B7 SWAP11 PUSH2 0xCA8 SWAP9 PUSH1 0x5 SWAP6 MLOAD DUP8 SSTORE MLOAD PUSH1 0x1 DUP8 ADD SSTORE MLOAD PUSH1 0x2 DUP7 ADD SSTORE PUSH1 0x3 DUP6 ADD SWAP1 MLOAD ISZERO ISZERO PUSH1 0xFF DUP1 NOT DUP4 SLOAD AND SWAP2 AND OR SWAP1 SSTORE MLOAD PUSH1 0x4 DUP5 ADD SSTORE MLOAD SWAP2 ADD SSTORE PUSH2 0xC89 DUP5 DUP3 SLOAD PUSH2 0x213F JUMP JUMPDEST SWAP1 SSTORE PUSH1 0x40 MLOAD SWAP4 DUP5 SWAP4 DUP5 PUSH1 0x40 SWAP2 SWAP5 SWAP4 SWAP3 PUSH1 0x60 DUP3 ADD SWAP6 DUP3 MSTORE PUSH1 0x20 DUP3 ADD MSTORE ADD MSTORE JUMP JUMPDEST SUB SWAP1 LOG3 STOP JUMPDEST PUSH4 0x4E487B71 PUSH1 0xE0 SHL PUSH1 0x0 MSTORE PUSH1 0x0 PUSH1 0x4 MSTORE PUSH1 0x24 PUSH1 0x0 REVERT JUMPDEST PUSH4 0x4E487B71 PUSH1 0xE0 SHL PUSH1 0x0 MSTORE PUSH1 0x41 PUSH1 0x4 MSTORE PUSH1 0x24 PUSH1 0x0 REVERT JUMPDEST PUSH1 0x40 MLOAD PUSH3 0x461BCD PUSH1 0xE5 SHL DUP2 MSTORE PUSH1 0x20 PUSH1 0x4 DUP3 ADD MSTORE PUSH1 0x22 PUSH1 0x24 DUP3 ADD MSTORE PUSH32 0x4C6F636B206D6F6E746873206D7573742062652067726561746572207468616E PUSH1 0x44 DUP3 ADD MSTORE PUSH2 0x203 PUSH1 0xF4 SHL PUSH1 0x64 DUP3 ADD MSTORE PUSH1 0x84 SWAP1 REVERT JUMPDEST PUSH1 0x40 MLOAD PUSH3 0x461BCD PUSH1 0xE5 SHL DUP2 MSTORE PUSH1 0x20 PUSH1 0x4 DUP3 ADD MSTORE PUSH1 0x15 PUSH1 0x24 DUP3 ADD MSTORE PUSH21 0x14995C5D595CDD125908185B1C9958591E481CD95D PUSH1 0x5A SHL PUSH1 0x44 DUP3 ADD MSTORE PUSH1 0x64 SWAP1 REVERT JUMPDEST PUSH1 0x40 MLOAD PUSH3 0x461BCD PUSH1 0xE5 SHL DUP2 MSTORE PUSH1 0x20 PUSH1 0x4 DUP3 ADD MSTORE PUSH1 0x19 PUSH1 0x24 DUP3 ADD MSTORE PUSH32 0x5472616E73616374696F6E206E6F7420636F6D706C6574656400000000000000 PUSH1 0x44 DUP3 ADD MSTORE PUSH1 0x64 SWAP1 REVERT JUMPDEST PUSH2 0xDCD SWAP2 POP PUSH1 0x20 RETURNDATASIZE PUSH1 0x20 GT PUSH2 0xDD3 JUMPI JUMPDEST PUSH2 0xDC5 DUP2 DUP4 PUSH2 0x1E42 JUMP JUMPDEST DUP2 ADD SWAP1 PUSH2 0x214C JUMP JUMPDEST DUP7 PUSH2 0xB3A JUMP JUMPDEST POP RETURNDATASIZE PUSH2 0xDBB JUMP JUMPDEST PUSH1 0x40 MLOAD PUSH3 0x461BCD PUSH1 0xE5 SHL DUP2 MSTORE PUSH1 0x20 PUSH1 0x4 DUP3 ADD MSTORE PUSH1 0xB PUSH1 0x24 DUP3 ADD MSTORE PUSH11 0x2737BA1036B0B730B3B2B9 PUSH1 0xA9 SHL PUSH1 0x44 DUP3 ADD MSTORE PUSH1 0x64 SWAP1 REVERT JUMPDEST CALLVALUE PUSH2 0x1B3 JUMPI PUSH1 0x20 CALLDATASIZE PUSH1 0x3 NOT ADD SLT PUSH2 0x1B3 JUMPI PUSH1 0x4 CALLDATALOAD PUSH2 0xE29 PUSH2 0x22C9 JUMP JUMPDEST PUSH2 0xE31 PUSH2 0x22AC JUMP JUMPDEST PUSH1 0x0 DUP2 DUP2 MSTORE PUSH1 0x7 PUSH1 0x20 MSTORE PUSH1 0x40 SWAP1 KECCAK256 SLOAD PUSH2 0xE54 SWAP1 PUSH1 0x1 PUSH1 0x1 PUSH1 0xA0 SHL SUB AND ISZERO ISZERO PUSH2 0x1FFB JUMP JUMPDEST DUP1 PUSH1 0x0 MSTORE PUSH1 0x7 PUSH1 0x20 MSTORE PUSH2 0xE75 PUSH1 0x1 DUP1 PUSH1 0xA0 SHL SUB PUSH1 0x40 PUSH1 0x0 KECCAK256 SLOAD AND CALLER EQ PUSH2 0x2047 JUMP JUMPDEST CALLER PUSH1 0x0 MSTORE PUSH1 0x6 PUSH1 0x20 MSTORE PUSH1 0xFF PUSH1 0x3 PUSH2 0xEC8 PUSH1 0x40 PUSH1 0x0 KECCAK256 DUP5 PUSH1 0x0 MSTORE PUSH1 0x4 DUP2 ADD PUSH1 0x20 MSTORE DUP3 PUSH1 0x40 PUSH1 0x0 KECCAK256 SLOAD SWAP2 ADD PUSH2 0xEAA DUP2 SLOAD DUP4 LT PUSH2 0x2093 JUMP JUMPDEST PUSH2 0xEC3 PUSH1 0x1 PUSH2 0xEB9 DUP5 DUP5 PUSH2 0x20D5 JUMP JUMPDEST POP ADD SLOAD ISZERO ISZERO PUSH2 0x2093 JUMP JUMPDEST PUSH2 0x20D5 JUMP JUMPDEST POP ADD SLOAD AND PUSH2 0xFC2 JUMPI CALLER PUSH1 0x0 MSTORE PUSH1 0x6 PUSH1 0x20 MSTORE PUSH1 0x40 PUSH1 0x0 KECCAK256 SWAP1 DUP1 PUSH1 0x0 MSTORE PUSH1 0x4 DUP3 ADD PUSH1 0x20 MSTORE PUSH1 0x1 PUSH1 0x40 PUSH1 0x0 KECCAK256 SLOAD SWAP3 PUSH1 0x3 PUSH2 0xF6C DUP2 DUP4 ADD SWAP6 DUP5 PUSH2 0xF07 DUP3 DUP10 PUSH2 0x20D5 JUMP JUMPDEST POP ADD SLOAD SWAP7 PUSH2 0xEC3 PUSH1 0x40 MLOAD PUSH4 0x23B872DD PUSH1 0xE0 SHL PUSH1 0x20 DUP3 ADD MSTORE CALLER PUSH1 0x24 DUP3 ADD MSTORE ADDRESS PUSH1 0x44 DUP3 ADD MSTORE DUP10 PUSH1 0x64 DUP3 ADD MSTORE PUSH1 0x64 DUP2 MSTORE PUSH2 0xF3F PUSH1 0x84 DUP3 PUSH2 0x1E42 JUMP JUMPDEST DUP8 DUP1 PUSH1 0xA0 SHL SUB PUSH32 0x0 AND PUSH2 0x231D JUMP JUMPDEST POP ADD DUP3 PUSH1 0xFF NOT DUP3 SLOAD AND OR SWAP1 SSTORE ADD PUSH2 0xF84 DUP4 DUP3 SLOAD PUSH2 0x213F JUMP JUMPDEST SWAP1 SSTORE PUSH1 0x40 MLOAD SWAP2 DUP3 MSTORE PUSH32 0x30FC86FB0BD3162E3AABA39B31FEA8F708D17D861DC141DB29FD9D47BEB8CE3A PUSH1 0x20 CALLER SWAP4 LOG3 PUSH1 0x1 PUSH1 0x2 SSTORE PUSH1 0x20 PUSH1 0x40 MLOAD PUSH1 0x1 DUP2 MSTORE RETURN JUMPDEST PUSH1 0x40 MLOAD PUSH3 0x461BCD PUSH1 0xE5 SHL DUP2 MSTORE PUSH1 0x20 PUSH1 0x4 DUP3 ADD MSTORE PUSH1 0x16 PUSH1 0x24 DUP3 ADD MSTORE PUSH22 0x105B1C9958591E4819195C1BDCDA5D1959081554D115 PUSH1 0x52 SHL PUSH1 0x44 DUP3 ADD MSTORE PUSH1 0x64 SWAP1 REVERT JUMPDEST CALLVALUE PUSH2 0x1B3 JUMPI PUSH1 0x20 CALLDATASIZE PUSH1 0x3 NOT ADD SLT PUSH2 0x1B3 JUMPI PUSH1 0x4 CALLDATALOAD PUSH1 0x0 DUP2 DUP2 MSTORE PUSH1 0x7 PUSH1 0x20 MSTORE PUSH1 0x40 SWAP1 KECCAK256 SLOAD PUSH2 0x1037 SWAP1 PUSH1 0x1 PUSH1 0x1 PUSH1 0xA0 SHL SUB AND ISZERO ISZERO PUSH2 0x1FFB JUMP JUMPDEST DUP1 PUSH1 0x0 MSTORE PUSH1 0x7 PUSH1 0x20 MSTORE PUSH1 0x1 DUP1 PUSH1 0xA0 SHL SUB PUSH1 0x40 PUSH1 0x0 KECCAK256 SLOAD AND PUSH1 0x0 MSTORE PUSH1 0x6 PUSH1 0x20 MSTORE PUSH1 0x40 PUSH1 0x0 KECCAK256 SWAP1 PUSH1 0x0 MSTORE PUSH1 0x4 DUP2 ADD PUSH1 0x20 MSTORE PUSH1 0x3 PUSH1 0x40 PUSH1 0x0 KECCAK256 SLOAD SWAP2 ADD DUP1 SLOAD DUP3 LT ISZERO PUSH2 0x10CB JUMPI PUSH1 0xC0 SWAP2 PUSH2 0x1085 SWAP2 PUSH2 0x20D5 JUMP JUMPDEST POP DUP1 SLOAD SWAP1 PUSH1 0x1 DUP2 ADD SLOAD SWAP1 PUSH1 0x2 DUP2 ADD SLOAD PUSH1 0xFF PUSH1 0x3 DUP4 ADD SLOAD AND SWAP1 PUSH1 0x5 PUSH1 0x4 DUP5 ADD SLOAD SWAP4 ADD SLOAD SWAP4 PUSH1 0x40 MLOAD SWAP6 DUP7 MSTORE PUSH1 0x20 DUP7 ADD MSTORE PUSH1 0x40 DUP6 ADD MSTORE ISZERO ISZERO PUSH1 0x60 DUP5 ADD MSTORE PUSH1 0x80 DUP4 ADD MSTORE PUSH1 0xA0 DUP3 ADD MSTORE RETURN JUMPDEST PUSH1 0x40 MLOAD PUSH3 0x461BCD PUSH1 0xE5 SHL DUP2 MSTORE PUSH1 0x20 PUSH1 0x4 DUP3 ADD MSTORE PUSH1 0x10 PUSH1 0x24 DUP3 ADD MSTORE PUSH16 0x24B73B30B634B2103837B9B4BA34B7B7 PUSH1 0x81 SHL PUSH1 0x44 DUP3 ADD MSTORE PUSH1 0x64 SWAP1 REVERT JUMPDEST CALLVALUE PUSH2 0x1B3 JUMPI PUSH1 0x0 CALLDATASIZE PUSH1 0x3 NOT ADD SLT PUSH2 0x1B3 JUMPI PUSH1 0x40 MLOAD PUSH32 0x0 PUSH1 0x1 PUSH1 0x1 PUSH1 0xA0 SHL SUB AND DUP2 MSTORE PUSH1 0x20 SWAP1 RETURN JUMPDEST CALLVALUE PUSH2 0x1B3 JUMPI PUSH1 0x0 CALLDATASIZE PUSH1 0x3 NOT ADD SLT PUSH2 0x1B3 JUMPI CALLER PUSH1 0x0 SWAP1 DUP2 MSTORE PUSH1 0x0 DUP1 MLOAD PUSH1 0x20 PUSH2 0x2379 DUP4 CODECOPY DUP2 MLOAD SWAP2 MSTORE PUSH1 0x20 MSTORE PUSH1 0x40 SWAP1 KECCAK256 SLOAD PUSH2 0x1182 SWAP1 PUSH1 0xFF AND PUSH2 0x2107 JUMP JUMPDEST PUSH1 0x1 SLOAD PUSH1 0xFF DUP2 AND ISZERO PUSH2 0x11C1 JUMPI PUSH1 0xFF NOT AND PUSH1 0x1 SSTORE PUSH32 0x5DB9EE0A495BF2E6FF9C91A7834C1BA4FDD244A5E8AA4E537BD38AEAE4B073AA PUSH1 0x20 PUSH1 0x40 MLOAD CALLER DUP2 MSTORE LOG1 STOP JUMPDEST PUSH4 0x8DFC202B PUSH1 0xE0 SHL PUSH1 0x0 MSTORE PUSH1 0x4 PUSH1 0x0 REVERT JUMPDEST CALLVALUE PUSH2 0x1B3 JUMPI PUSH1 0x40 CALLDATASIZE PUSH1 0x3 NOT ADD SLT PUSH2 0x1B3 JUMPI PUSH1 0x24 CALLDATALOAD PUSH1 0x4 CALLDATALOAD PUSH2 0x11F1 PUSH2 0x22AC JUMP JUMPDEST PUSH2 0x11F9 PUSH2 0x22C9 JUMP JUMPDEST PUSH1 0x0 DUP2 DUP2 MSTORE PUSH1 0x7 PUSH1 0x20 MSTORE PUSH1 0x40 SWAP1 KECCAK256 SLOAD PUSH2 0x121C SWAP1 PUSH1 0x1 PUSH1 0x1 PUSH1 0xA0 SHL SUB AND ISZERO ISZERO PUSH2 0x1FFB JUMP JUMPDEST PUSH1 0x0 DUP2 DUP2 MSTORE PUSH1 0x7 PUSH1 0x20 MSTORE PUSH1 0x40 SWAP1 KECCAK256 SLOAD PUSH2 0x123F SWAP1 PUSH1 0x1 PUSH1 0x1 PUSH1 0xA0 SHL SUB AND CALLER EQ PUSH2 0x2047 JUMP JUMPDEST CALLER PUSH1 0x0 MSTORE PUSH1 0x6 PUSH1 0x20 MSTORE PUSH1 0x40 PUSH1 0x0 KECCAK256 DUP2 PUSH1 0x0 MSTORE PUSH1 0x4 DUP2 ADD PUSH1 0x20 MSTORE PUSH1 0x3 PUSH1 0x40 PUSH1 0x0 KECCAK256 SLOAD SWAP2 ADD SWAP1 PUSH2 0x126F DUP3 SLOAD DUP3 LT PUSH2 0x2093 JUMP JUMPDEST PUSH2 0x127E PUSH1 0x1 PUSH2 0xEB9 DUP4 DUP6 PUSH2 0x20D5 JUMP JUMPDEST PUSH1 0x2 PUSH2 0x128A DUP3 DUP5 PUSH2 0x20D5 JUMP JUMPDEST POP ADD SLOAD PUSH2 0x19D8 JUMPI PUSH2 0x129F PUSH1 0x3 SWAP2 PUSH1 0xFF SWAP4 PUSH2 0x20D5 JUMP JUMPDEST POP ADD SLOAD AND ISZERO PUSH2 0x199B JUMPI PUSH1 0x5A DUP3 GT PUSH2 0x1962 JUMPI CALLER PUSH1 0x0 MSTORE PUSH1 0x6 PUSH1 0x20 MSTORE PUSH1 0x40 PUSH1 0x0 KECCAK256 SWAP1 DUP1 PUSH1 0x0 MSTORE PUSH1 0x4 DUP3 ADD PUSH1 0x20 MSTORE PUSH1 0x40 PUSH1 0x0 KECCAK256 SLOAD SWAP3 PUSH1 0x3 DUP4 ADD SWAP3 PUSH2 0x12E0 DUP6 DUP6 PUSH2 0x20D5 JUMP JUMPDEST POP SLOAD PUSH1 0x1 PUSH2 0x12EE DUP8 DUP8 PUSH2 0x20D5 JUMP JUMPDEST POP ADD SLOAD SWAP3 DUP3 SLOAD SWAP4 DUP3 DUP6 LT PUSH2 0x1928 JUMPI PUSH1 0x1 DUP5 ADD DUP1 SLOAD SWAP2 DUP1 DUP4 LT PUSH2 0x18EF JUMPI DUP4 PUSH1 0x64 SUB SWAP7 PUSH1 0x64 DUP9 GT PUSH2 0x18D9 JUMPI PUSH2 0x1349 DUP3 PUSH1 0x64 PUSH2 0x1327 DUP12 DUP11 PUSH2 0x1FE8 JUMP JUMPDEST DIV SWAP6 PUSH2 0x1342 DUP10 PUSH1 0x64 PUSH2 0x133B PUSH1 0x0 SWAP15 DUP7 PUSH2 0x1FE8 JUMP JUMPDEST DIV SWAP6 PUSH2 0x1FDB JUMP JUMPDEST DUP11 SSTORE PUSH2 0x1FDB JUMP JUMPDEST DUP4 SSTORE PUSH1 0x3 SLOAD TIMESTAMP PUSH2 0x12C DUP2 ADD SWAP6 SWAP2 PUSH1 0x1 PUSH1 0x1 PUSH1 0xA0 SHL SUB AND SWAP1 DUP7 LT PUSH2 0x18C5 JUMPI PUSH1 0x60 SWAP3 SWAP2 DUP11 PUSH2 0x104 SWAP3 PUSH1 0x40 MLOAD SWAP9 DUP10 SWAP6 DUP7 SWAP5 PUSH3 0xE8E337 PUSH1 0xE8 SHL DUP7 MSTORE PUSH1 0x1 DUP1 PUSH1 0xA0 SHL SUB PUSH32 0x0 AND PUSH1 0x4 DUP8 ADD MSTORE PUSH1 0x1 DUP1 PUSH1 0xA0 SHL SUB PUSH32 0x0 AND PUSH1 0x24 DUP8 ADD MSTORE DUP14 PUSH1 0x44 DUP8 ADD MSTORE DUP10 PUSH1 0x64 DUP8 ADD MSTORE PUSH1 0x84 DUP7 ADD MSTORE PUSH1 0xA4 DUP6 ADD MSTORE ADDRESS PUSH1 0xC4 DUP6 ADD MSTORE PUSH1 0xE4 DUP5 ADD MSTORE GAS CALL SWAP6 DUP7 ISZERO PUSH2 0x18BA JUMPI SWAP1 DUP9 SWAP6 SWAP5 SWAP4 SWAP3 SWAP2 DUP9 SWAP6 DUP13 DUP13 DUP12 SWAP7 DUP13 SWAP12 PUSH2 0x185F JUMPI JUMPDEST POP SWAP2 DUP11 PUSH1 0x2 PUSH2 0x142D DUP12 SWAP5 DUP11 SWAP9 SWAP8 SWAP7 PUSH2 0x20D5 JUMP JUMPDEST POP ADD SSTORE PUSH1 0x2 DUP4 ADD PUSH2 0x143F DUP13 DUP3 SLOAD PUSH2 0x213F JUMP JUMPDEST SWAP1 SSTORE DUP2 DUP2 GT PUSH2 0x1848 JUMPI JUMPDEST POP POP POP DUP2 DUP2 GT PUSH2 0x182A JUMPI JUMPDEST POP POP POP PUSH1 0x40 MLOAD SWAP3 DUP4 MSTORE PUSH1 0x20 DUP4 ADD MSTORE DUP4 PUSH1 0x40 DUP4 ADD MSTORE PUSH1 0x60 DUP3 ADD MSTORE PUSH32 0xEF15D1205EDE66926E7D68D76794BBCA9B64DFF11B1596BB376ED957125311EC PUSH1 0x80 CALLER SWAP3 LOG3 PUSH1 0x40 MLOAD PUSH4 0x95EA7B3 PUSH1 0xE0 SHL DUP2 MSTORE PUSH32 0x0 PUSH1 0x1 PUSH1 0x1 PUSH1 0xA0 SHL SUB DUP2 DUP2 AND PUSH1 0x4 DUP5 ADD MSTORE PUSH1 0x24 DUP4 ADD DUP5 SWAP1 MSTORE PUSH32 0x0 AND SWAP7 SWAP1 SWAP6 SWAP1 SWAP2 PUSH1 0x20 DUP2 PUSH1 0x44 DUP2 DUP9 DUP13 GAS CALL DUP1 ISZERO PUSH2 0x181F JUMPI PUSH2 0x1802 JUMPI JUMPDEST POP PUSH1 0x5 PUSH2 0x1521 DUP4 DUP4 PUSH2 0x20D5 JUMP JUMPDEST POP ADD SLOAD DUP1 PUSH3 0x278D00 MUL SWAP1 PUSH3 0x278D00 DUP3 DIV SUB PUSH2 0x17EE JUMPI PUSH2 0x1543 SWAP1 SWAP8 SWAP7 SWAP8 TIMESTAMP PUSH2 0x213F JUMP JUMPDEST SWAP7 PUSH1 0x40 SWAP7 DUP9 DUP9 MLOAD SWAP3 PUSH2 0x1555 DUP11 DUP6 PUSH2 0x1E42 JUMP JUMPDEST PUSH1 0x10 DUP5 MSTORE PUSH16 0x181899199A1A9B1B9C1CB0B131B232B3 PUSH1 0x81 SHL PUSH1 0x20 DUP6 ADD MSTORE DUP7 DUP9 DUP12 MLOAD PUSH2 0x1580 DUP14 DUP3 PUSH2 0x1E42 JUMP JUMPDEST PUSH1 0x6 DUP2 MSTORE DUP13 PUSH1 0x20 DUP3 ADD SWAP8 PUSH1 0x1F NOT DUP3 ADD CALLDATASIZE DUP11 CALLDATACOPY DUP4 JUMPDEST PUSH1 0x3 DUP2 LT PUSH2 0x170A JUMPI POP POP SWAP6 PUSH1 0xE4 SWAP2 PUSH2 0x1645 DUP9 PUSH2 0x15FE PUSH1 0x2 PUSH1 0x35 PUSH1 0x20 SWAP13 MLOAD DUP1 SWAP15 PUSH2 0x15E1 DUP16 DUP4 ADD SWAP9 PUSH21 0x3D9136111D10112824A7902628102637B1B5B2B91 PUSH1 0x5D SHL DUP11 MSTORE MLOAD DUP1 SWAP3 DUP6 DUP6 ADD SWAP1 PUSH2 0x22E9 JUMP JUMPDEST DUP2 ADD PUSH2 0x227D PUSH1 0xF0 SHL DUP4 DUP3 ADD MSTORE SUB ADD DUP14 PUSH1 0x1D NOT DUP3 ADD SWAP1 MSTORE ADD DUP13 PUSH2 0x1E42 JUMP JUMPDEST MLOAD SWAP10 DUP11 SWAP9 DUP10 SWAP8 DUP9 SWAP6 PUSH4 0x7279357 PUSH1 0xE0 SHL DUP8 MSTORE CALLER PUSH1 0x4 DUP9 ADD MSTORE PUSH1 0x24 DUP8 ADD MSTORE PUSH1 0x1 PUSH1 0x44 DUP8 ADD MSTORE PUSH1 0x64 DUP7 ADD MSTORE PUSH1 0x84 DUP6 ADD MSTORE PUSH1 0xC0 PUSH1 0xA4 DUP6 ADD MSTORE MLOAD DUP1 SWAP3 DUP2 PUSH1 0xC4 DUP7 ADD MSTORE DUP6 DUP6 ADD SWAP1 PUSH2 0x22E9 JUMP JUMPDEST PUSH1 0x1F ADD PUSH1 0x1F NOT AND DUP2 ADD SUB ADD SWAP3 PUSH1 0x1 PUSH1 0x1 PUSH1 0xA0 SHL SUB AND GAS CALL SWAP5 DUP6 ISZERO PUSH2 0x16FF JUMPI DUP1 SWAP6 PUSH2 0x16C2 JUMPI JUMPDEST POP POP SWAP2 DUP4 PUSH1 0x4 PUSH2 0x169E PUSH1 0x20 SWAP10 SWAP5 PUSH32 0x1C2FAC9A217B58D9184FEAEEA4F883F176E185406B96166FBCAD47DC04861111 SWAP7 PUSH2 0x20D5 JUMP JUMPDEST POP ADD SSTORE DUP6 MLOAD SWAP4 DUP5 MSTORE PUSH1 0x20 DUP5 ADD MSTORE PUSH1 0x40 DUP4 ADD MSTORE CALLER SWAP2 PUSH1 0x60 SWAP1 LOG3 PUSH1 0x1 PUSH1 0x2 SSTORE MLOAD PUSH1 0x1 DUP2 MSTORE RETURN JUMPDEST SWAP1 SWAP2 SWAP3 SWAP5 POP PUSH1 0x20 DUP3 RETURNDATASIZE PUSH1 0x20 GT PUSH2 0x16F7 JUMPI JUMPDEST DUP2 PUSH2 0x16E0 PUSH1 0x20 SWAP4 DUP4 PUSH2 0x1E42 JUMP JUMPDEST DUP2 ADD SUB SLT PUSH2 0x16F4 JUMPI POP MLOAD SWAP3 SWAP1 DUP1 PUSH1 0x4 PUSH2 0x166A JUMP JUMPDEST DUP1 REVERT JUMPDEST RETURNDATASIZE SWAP2 POP PUSH2 0x16D3 JUMP JUMPDEST DUP8 MLOAD SWAP1 RETURNDATASIZE SWAP1 DUP3 RETURNDATACOPY RETURNDATASIZE SWAP1 REVERT JUMPDEST SWAP4 POP SWAP4 POP POP SWAP3 SWAP5 SWAP4 POP DUP1 PUSH1 0x2 SUB PUSH1 0x2 DUP2 GT PUSH2 0x17DA JUMPI PUSH1 0x1 PUSH1 0x1 PUSH1 0xFD SHL SUB DUP2 AND DUP2 SUB PUSH2 0x17DA JUMPI CALLER SWAP1 PUSH1 0x3 SHL SHR PUSH1 0xFF PUSH1 0xF8 SHL PUSH2 0x174A PUSH1 0xF DUP4 PUSH1 0x4 SHR AND DUP6 PUSH2 0x230C JUMP JUMPDEST MLOAD AND SWAP1 DUP3 PUSH1 0x1 SHL SWAP2 DUP4 DUP4 DIV PUSH1 0x2 EQ DUP5 ISZERO OR ISZERO PUSH2 0x17C6 JUMPI DUP13 BYTE PUSH2 0x176C DUP4 DUP8 PUSH2 0x230C JUMP JUMPDEST MSTORE8 PUSH1 0x1 PUSH1 0x1 PUSH1 0xF8 SHL SUB NOT SWAP1 PUSH2 0x1784 SWAP1 PUSH1 0xF AND DUP6 PUSH2 0x230C JUMP JUMPDEST MLOAD AND PUSH1 0x1 DUP3 ADD DUP1 SWAP3 GT PUSH2 0x17B2 JUMPI SWAP1 PUSH2 0x17A2 PUSH1 0x1 SWAP4 SWAP3 DUP14 BYTE SWAP2 DUP7 PUSH2 0x230C JUMP JUMPDEST MSTORE8 ADD DUP13 SWAP4 SWAP5 SWAP3 DUP13 DUP11 SWAP4 DUP13 SWAP4 PUSH2 0x1594 JUMP JUMPDEST PUSH4 0x4E487B71 PUSH1 0xE0 SHL DUP13 MSTORE PUSH1 0x11 PUSH1 0x4 MSTORE PUSH1 0x24 DUP13 REVERT JUMPDEST PUSH4 0x4E487B71 PUSH1 0xE0 SHL DUP14 MSTORE PUSH1 0x11 PUSH1 0x4 MSTORE PUSH1 0x24 DUP14 REVERT JUMPDEST PUSH4 0x4E487B71 PUSH1 0xE0 SHL DUP12 MSTORE PUSH1 0x11 PUSH1 0x4 MSTORE PUSH1 0x24 DUP12 REVERT JUMPDEST PUSH4 0x4E487B71 PUSH1 0xE0 SHL DUP6 MSTORE PUSH1 0x11 PUSH1 0x4 MSTORE PUSH1 0x24 DUP6 REVERT JUMPDEST PUSH2 0x181A SWAP1 PUSH1 0x20 RETURNDATASIZE PUSH1 0x20 GT PUSH2 0xDD3 JUMPI PUSH2 0xDC5 DUP2 DUP4 PUSH2 0x1E42 JUMP JUMPDEST PUSH2 0x1514 JUMP JUMPDEST PUSH1 0x40 MLOAD RETURNDATASIZE DUP8 DUP3 RETURNDATACOPY RETURNDATASIZE SWAP1 REVERT JUMPDEST PUSH2 0x183E SWAP2 PUSH2 0x1837 SWAP2 PUSH2 0x1FDB JUMP JUMPDEST DUP3 SLOAD PUSH2 0x213F JUMP JUMPDEST SWAP1 SSTORE DUP10 DUP2 DUP2 PUSH2 0x1454 JUMP JUMPDEST PUSH2 0x1855 SWAP2 PUSH2 0x1837 SWAP2 PUSH2 0x1FDB JUMP JUMPDEST SWAP1 SSTORE DUP13 DUP7 DUP2 PUSH2 0x1449 JUMP JUMPDEST SWAP6 SWAP10 POP POP POP SWAP6 POP SWAP3 POP SWAP3 SWAP6 POP PUSH1 0x60 DUP2 RETURNDATASIZE PUSH1 0x60 GT PUSH2 0x18B2 JUMPI JUMPDEST DUP2 PUSH2 0x1884 PUSH1 0x60 SWAP4 DUP4 PUSH2 0x1E42 JUMP JUMPDEST DUP2 ADD SUB SLT PUSH2 0x18AE JUMPI DUP1 MLOAD PUSH1 0x20 DUP3 ADD MLOAD PUSH1 0x40 SWAP1 SWAP3 ADD MLOAD SWAP7 DUP10 SWAP7 SWAP2 SWAP6 SWAP1 SWAP5 SWAP3 SWAP4 SWAP2 SWAP3 SWAP2 SWAP1 DUP13 DUP13 DUP7 PUSH2 0x141A JUMP JUMPDEST DUP7 DUP1 REVERT JUMPDEST RETURNDATASIZE SWAP2 POP PUSH2 0x1877 JUMP JUMPDEST PUSH1 0x40 MLOAD RETURNDATASIZE DUP10 DUP3 RETURNDATACOPY RETURNDATASIZE SWAP1 REVERT JUMPDEST PUSH4 0x4E487B71 PUSH1 0xE0 SHL DUP11 MSTORE PUSH1 0x11 PUSH1 0x4 MSTORE PUSH1 0x24 DUP11 REVERT JUMPDEST PUSH4 0x4E487B71 PUSH1 0xE0 SHL PUSH1 0x0 MSTORE PUSH1 0x11 PUSH1 0x4 MSTORE PUSH1 0x24 PUSH1 0x0 REVERT JUMPDEST PUSH1 0x40 MLOAD PUSH3 0x461BCD PUSH1 0xE5 SHL DUP2 MSTORE PUSH1 0x20 PUSH1 0x4 DUP3 ADD MSTORE PUSH1 0x11 PUSH1 0x24 DUP3 ADD MSTORE PUSH17 0x125B9CDD59999A58DA595B9D081554D115 PUSH1 0x7A SHL PUSH1 0x44 DUP3 ADD MSTORE PUSH1 0x64 SWAP1 REVERT JUMPDEST PUSH1 0x40 MLOAD PUSH3 0x461BCD PUSH1 0xE5 SHL DUP2 MSTORE PUSH1 0x20 PUSH1 0x4 DUP3 ADD MSTORE PUSH1 0x12 PUSH1 0x24 DUP3 ADD MSTORE PUSH18 0x496E73756666696369656E742050494F4E45 PUSH1 0x70 SHL PUSH1 0x44 DUP3 ADD MSTORE PUSH1 0x64 SWAP1 REVERT JUMPDEST PUSH1 0x40 MLOAD PUSH3 0x461BCD PUSH1 0xE5 SHL DUP2 MSTORE PUSH1 0x20 PUSH1 0x4 DUP3 ADD MSTORE PUSH1 0x11 PUSH1 0x24 DUP3 ADD MSTORE PUSH17 0xA6D8D2E0E0C2CECA40E8DEDE40D0D2CED PUSH1 0x7B SHL PUSH1 0x44 DUP3 ADD MSTORE PUSH1 0x64 SWAP1 REVERT JUMPDEST PUSH1 0x40 MLOAD PUSH3 0x461BCD PUSH1 0xE5 SHL DUP2 MSTORE PUSH1 0x20 PUSH1 0x4 DUP3 ADD MSTORE PUSH1 0x15 PUSH1 0x24 DUP3 ADD MSTORE PUSH21 0x1554D115081B9BDD081C1C9BDD9A591959081E595D PUSH1 0x5A SHL PUSH1 0x44 DUP3 ADD MSTORE PUSH1 0x64 SWAP1 REVERT JUMPDEST PUSH1 0x40 MLOAD PUSH3 0x461BCD PUSH1 0xE5 SHL DUP2 MSTORE PUSH1 0x20 PUSH1 0x4 DUP3 ADD MSTORE PUSH1 0x21 PUSH1 0x24 DUP3 ADD MSTORE PUSH32 0x4164646974696F6E616C206C69717569646974792072657175657374206D6164 PUSH1 0x44 DUP3 ADD MSTORE PUSH1 0x65 PUSH1 0xF8 SHL PUSH1 0x64 DUP3 ADD MSTORE PUSH1 0x84 SWAP1 REVERT JUMPDEST CALLVALUE PUSH2 0x1B3 JUMPI PUSH1 0x40 CALLDATASIZE PUSH1 0x3 NOT ADD SLT PUSH2 0x1B3 JUMPI PUSH2 0x1A40 PUSH2 0x1E16 JUMP JUMPDEST CALLER PUSH1 0x1 PUSH1 0x1 PUSH1 0xA0 SHL SUB DUP3 AND SUB PUSH2 0x1A5C JUMPI PUSH2 0x2D0 SWAP1 PUSH1 0x4 CALLDATALOAD PUSH2 0x222A JUMP JUMPDEST PUSH4 0x334BD919 PUSH1 0xE1 SHL PUSH1 0x0 MSTORE PUSH1 0x4 PUSH1 0x0 REVERT JUMPDEST CALLVALUE PUSH2 0x1B3 JUMPI PUSH1 0x40 CALLDATASIZE PUSH1 0x3 NOT ADD SLT PUSH2 0x1B3 JUMPI PUSH2 0x2D0 PUSH1 0x4 CALLDATALOAD PUSH2 0x1A8C PUSH2 0x1E16 JUMP JUMPDEST SWAP1 PUSH2 0x1AA8 PUSH2 0x2C6 DUP3 PUSH1 0x0 MSTORE PUSH1 0x0 PUSH1 0x20 MSTORE PUSH1 0x1 PUSH1 0x40 PUSH1 0x0 KECCAK256 ADD SLOAD SWAP1 JUMP JUMPDEST PUSH2 0x219F JUMP JUMPDEST CALLVALUE PUSH2 0x1B3 JUMPI PUSH1 0x20 CALLDATASIZE PUSH1 0x3 NOT ADD SLT PUSH2 0x1B3 JUMPI PUSH1 0x20 PUSH2 0x1ADA PUSH1 0x4 CALLDATALOAD PUSH1 0x0 MSTORE PUSH1 0x0 PUSH1 0x20 MSTORE PUSH1 0x1 PUSH1 0x40 PUSH1 0x0 KECCAK256 ADD SLOAD SWAP1 JUMP JUMPDEST PUSH1 0x40 MLOAD SWAP1 DUP2 MSTORE RETURN JUMPDEST CALLVALUE PUSH2 0x1B3 JUMPI PUSH1 0x40 CALLDATASIZE PUSH1 0x3 NOT ADD SLT PUSH2 0x1B3 JUMPI PUSH1 0x4 CALLDATALOAD PUSH1 0x0 PUSH1 0x24 CALLDATALOAD PUSH2 0x1B03 PUSH2 0x1E78 JUMP JUMPDEST PUSH1 0x3 SLOAD PUSH1 0x40 MLOAD PUSH4 0x2B58577B PUSH1 0xE2 SHL DUP2 MSTORE PUSH1 0x4 DUP2 ADD DUP8 SWAP1 MSTORE PUSH1 0x24 DUP2 ADD DUP4 SWAP1 MSTORE PUSH1 0x44 DUP2 ADD DUP5 SWAP1 MSTORE SWAP2 SWAP6 SWAP2 SWAP5 SWAP2 SWAP3 PUSH1 0x1 PUSH1 0x1 PUSH1 0xA0 SHL SUB SWAP1 SWAP2 AND SWAP1 PUSH1 0x20 DUP7 PUSH1 0x64 DUP2 DUP6 GAS STATICCALL SWAP6 DUP7 ISZERO PUSH2 0x1D15 JUMPI SWAP1 DUP8 SWAP3 SWAP2 DUP5 SWAP8 PUSH2 0x1CD8 JUMPI JUMPDEST POP DUP6 DUP8 GT PUSH2 0x1C3C JUMPI POP POP POP POP PUSH2 0x1B6D SWAP1 SWAP3 DUP1 SWAP3 PUSH2 0x1FDB JUMP JUMPDEST SWAP1 PUSH1 0x0 SWAP1 JUMPDEST PUSH1 0x40 MLOAD PUSH4 0x18160DDD PUSH1 0xE0 SHL DUP2 MSTORE PUSH1 0x20 DUP2 PUSH1 0x4 DUP2 PUSH32 0x0 PUSH1 0x1 PUSH1 0x1 PUSH1 0xA0 SHL SUB AND GAS STATICCALL DUP1 ISZERO PUSH2 0x3C6 JUMPI PUSH1 0x0 SWAP1 PUSH2 0x1C08 JUMPI JUMPDEST PUSH2 0x1BCA SWAP2 POP DUP6 PUSH2 0x1FE8 JUMP JUMPDEST SWAP5 DUP1 ISZERO PUSH2 0x1BF2 JUMPI PUSH1 0xA0 SWAP6 DIV SWAP1 PUSH1 0x40 MLOAD SWAP5 DUP6 MSTORE PUSH1 0x20 DUP6 ADD MSTORE PUSH1 0x40 DUP5 ADD MSTORE PUSH1 0x60 DUP4 ADD MSTORE PUSH1 0x80 DUP3 ADD MSTORE RETURN JUMPDEST PUSH4 0x4E487B71 PUSH1 0xE0 SHL PUSH1 0x0 MSTORE PUSH1 0x12 PUSH1 0x4 MSTORE PUSH1 0x24 PUSH1 0x0 REVERT JUMPDEST POP PUSH1 0x20 DUP2 RETURNDATASIZE PUSH1 0x20 GT PUSH2 0x1C34 JUMPI JUMPDEST DUP2 PUSH2 0x1C22 PUSH1 0x20 SWAP4 DUP4 PUSH2 0x1E42 JUMP JUMPDEST DUP2 ADD SUB SLT PUSH2 0x1B3 JUMPI PUSH2 0x1BCA SWAP1 MLOAD PUSH2 0x1BBF JUMP JUMPDEST RETURNDATASIZE SWAP2 POP PUSH2 0x1C15 JUMP JUMPDEST PUSH1 0x40 MLOAD PUSH4 0x2B58577B PUSH1 0xE2 SHL DUP2 MSTORE PUSH1 0x4 DUP2 ADD DUP8 SWAP1 MSTORE PUSH1 0x24 DUP2 ADD SWAP2 SWAP1 SWAP2 MSTORE PUSH1 0x44 DUP2 ADD SWAP3 SWAP1 SWAP3 MSTORE SWAP4 SWAP5 POP SWAP2 SWAP3 PUSH1 0x20 SWAP1 DUP4 SWAP1 PUSH1 0x64 SWAP1 DUP3 SWAP1 GAS STATICCALL SWAP1 DUP2 ISZERO PUSH2 0x1CCC JUMPI DUP1 SWAP2 PUSH2 0x1C95 JUMPI JUMPDEST POP PUSH2 0x1C8D SWAP2 POP DUP1 SWAP4 SWAP3 PUSH2 0x1FDB JUMP JUMPDEST PUSH1 0x0 SWAP2 PUSH2 0x1B72 JUMP JUMPDEST SWAP1 POP PUSH1 0x20 DUP3 RETURNDATASIZE PUSH1 0x20 GT PUSH2 0x1CC4 JUMPI JUMPDEST DUP2 PUSH2 0x1CB0 PUSH1 0x20 SWAP4 DUP4 PUSH2 0x1E42 JUMP JUMPDEST DUP2 ADD SUB SLT PUSH2 0x16F4 JUMPI POP PUSH2 0x1C8D SWAP1 MLOAD DUP6 PUSH2 0x1C7F JUMP JUMPDEST RETURNDATASIZE SWAP2 POP PUSH2 0x1CA3 JUMP JUMPDEST PUSH1 0x40 MLOAD SWAP1 RETURNDATASIZE SWAP1 DUP3 RETURNDATACOPY RETURNDATASIZE SWAP1 REVERT JUMPDEST SWAP2 SWAP3 POP SWAP6 POP PUSH1 0x20 DUP2 RETURNDATASIZE PUSH1 0x20 GT PUSH2 0x1D0D JUMPI JUMPDEST DUP2 PUSH2 0x1CF6 PUSH1 0x20 SWAP4 DUP4 PUSH2 0x1E42 JUMP JUMPDEST DUP2 ADD SUB SLT PUSH2 0x1D09 JUMPI SWAP1 DUP7 SWAP2 MLOAD SWAP6 DUP9 PUSH2 0x1B55 JUMP JUMPDEST DUP3 DUP1 REVERT JUMPDEST RETURNDATASIZE SWAP2 POP PUSH2 0x1CE9 JUMP JUMPDEST PUSH1 0x40 MLOAD RETURNDATASIZE DUP6 DUP3 RETURNDATACOPY RETURNDATASIZE SWAP1 REVERT JUMPDEST CALLVALUE PUSH2 0x1B3 JUMPI PUSH1 0x20 CALLDATASIZE PUSH1 0x3 NOT ADD SLT PUSH2 0x1B3 JUMPI PUSH2 0x376 PUSH1 0x20 PUSH2 0x1D3E PUSH2 0x1E78 JUMP JUMPDEST PUSH1 0x3 SLOAD PUSH1 0x40 MLOAD PUSH4 0x2B58577B PUSH1 0xE2 SHL DUP2 MSTORE PUSH1 0x4 DUP1 CALLDATALOAD SWAP1 DUP3 ADD MSTORE PUSH1 0x24 DUP2 ADD SWAP3 SWAP1 SWAP3 MSTORE PUSH1 0x44 DUP3 ADD SWAP3 SWAP1 SWAP3 MSTORE SWAP3 DUP4 SWAP2 PUSH1 0x1 PUSH1 0x1 PUSH1 0xA0 SHL SUB AND SWAP1 DUP3 SWAP1 DUP2 SWAP1 PUSH1 0x64 DUP3 ADD SWAP1 JUMP JUMPDEST CALLVALUE PUSH2 0x1B3 JUMPI PUSH1 0x0 CALLDATASIZE PUSH1 0x3 NOT ADD SLT PUSH2 0x1B3 JUMPI PUSH1 0x20 PUSH1 0x5 SLOAD PUSH1 0x40 MLOAD SWAP1 DUP2 MSTORE RETURN JUMPDEST CALLVALUE PUSH2 0x1B3 JUMPI PUSH1 0x0 CALLDATASIZE PUSH1 0x3 NOT ADD SLT PUSH2 0x1B3 JUMPI PUSH1 0x40 PUSH2 0x1DB7 PUSH2 0x1E78 JUMP JUMPDEST DUP3 MLOAD SWAP2 DUP3 MSTORE PUSH1 0x20 DUP3 ADD MSTORE RETURN JUMPDEST CALLVALUE PUSH2 0x1B3 JUMPI PUSH1 0x20 CALLDATASIZE PUSH1 0x3 NOT ADD SLT PUSH2 0x1B3 JUMPI PUSH1 0x4 CALLDATALOAD SWAP1 PUSH4 0xFFFFFFFF PUSH1 0xE0 SHL DUP3 AND DUP1 SWAP3 SUB PUSH2 0x1B3 JUMPI PUSH1 0x20 SWAP2 PUSH4 0x7965DB0B PUSH1 0xE0 SHL DUP2 EQ SWAP1 DUP2 ISZERO PUSH2 0x1E05 JUMPI JUMPDEST POP ISZERO ISZERO DUP2 MSTORE RETURN JUMPDEST PUSH4 0x1FFC9A7 PUSH1 0xE0 SHL EQ SWAP1 POP DUP4 PUSH2 0x1DFE JUMP JUMPDEST PUSH1 0x24 CALLDATALOAD SWAP1 PUSH1 0x1 PUSH1 0x1 PUSH1 0xA0 SHL SUB DUP3 AND DUP3 SUB PUSH2 0x1B3 JUMPI JUMP JUMPDEST PUSH1 0x4 CALLDATALOAD SWAP1 PUSH1 0x1 PUSH1 0x1 PUSH1 0xA0 SHL SUB DUP3 AND DUP3 SUB PUSH2 0x1B3 JUMPI JUMP JUMPDEST SWAP1 PUSH1 0x1F DUP1 NOT SWAP2 ADD AND DUP2 ADD SWAP1 DUP2 LT PUSH8 0xFFFFFFFFFFFFFFFF DUP3 GT OR PUSH2 0xCC3 JUMPI PUSH1 0x40 MSTORE JUMP JUMPDEST MLOAD SWAP1 PUSH1 0x1 PUSH1 0x1 PUSH1 0x70 SHL SUB DUP3 AND DUP3 SUB PUSH2 0x1B3 JUMPI JUMP JUMPDEST PUSH1 0x40 MLOAD PUSH4 0x240BC6B PUSH1 0xE2 SHL DUP2 MSTORE PUSH32 0x0 PUSH1 0x1 PUSH1 0x1 PUSH1 0xA0 SHL SUB AND SWAP1 PUSH1 0x60 DUP2 PUSH1 0x4 DUP2 DUP6 GAS STATICCALL SWAP1 DUP2 ISZERO PUSH2 0x3C6 JUMPI PUSH1 0x0 SWAP1 DUP2 SWAP3 PUSH2 0x1F81 JUMPI JUMPDEST POP PUSH1 0x20 PUSH1 0x1 PUSH1 0x1 PUSH1 0x70 SHL SUB DUP1 PUSH1 0x4 SWAP4 AND SWAP4 AND SWAP4 PUSH1 0x40 MLOAD SWAP3 DUP4 DUP1 SWAP3 PUSH4 0xDFE1681 PUSH1 0xE0 SHL DUP3 MSTORE GAS STATICCALL SWAP1 DUP2 ISZERO PUSH2 0x3C6 JUMPI PUSH1 0x0 SWAP2 PUSH2 0x1F3B JUMPI JUMPDEST POP PUSH1 0x1 PUSH1 0x1 PUSH1 0xA0 SHL SUB SWAP1 DUP2 AND PUSH32 0x0 SWAP1 SWAP2 AND SUB PUSH2 0x1F37 JUMPI SWAP2 JUMP JUMPDEST SWAP1 SWAP2 JUMP JUMPDEST PUSH1 0x20 DUP2 RETURNDATASIZE PUSH1 0x20 GT PUSH2 0x1F79 JUMPI JUMPDEST DUP2 PUSH2 0x1F54 PUSH1 0x20 SWAP4 DUP4 PUSH2 0x1E42 JUMP JUMPDEST DUP2 ADD SUB SLT PUSH2 0x1F75 JUMPI MLOAD SWAP1 PUSH1 0x1 PUSH1 0x1 PUSH1 0xA0 SHL SUB DUP3 AND DUP3 SUB PUSH2 0x16F4 JUMPI POP CODESIZE PUSH2 0x1EFF JUMP JUMPDEST POP DUP1 REVERT JUMPDEST RETURNDATASIZE SWAP2 POP PUSH2 0x1F47 JUMP JUMPDEST SWAP2 POP PUSH1 0x60 DUP3 RETURNDATASIZE PUSH1 0x60 GT PUSH2 0x1FD3 JUMPI JUMPDEST DUP2 PUSH2 0x1F9C PUSH1 0x60 SWAP4 DUP4 PUSH2 0x1E42 JUMP JUMPDEST DUP2 ADD SUB SLT PUSH2 0x16F4 JUMPI PUSH2 0x1FAD DUP3 PUSH2 0x1E64 JUMP JUMPDEST SWAP1 PUSH1 0x40 PUSH2 0x1FBC PUSH1 0x20 DUP6 ADD PUSH2 0x1E64 JUMP JUMPDEST SWAP4 ADD MLOAD PUSH4 0xFFFFFFFF DUP2 AND SUB PUSH2 0x16F4 JUMPI POP PUSH1 0x20 PUSH2 0x1ECA JUMP JUMPDEST RETURNDATASIZE SWAP2 POP PUSH2 0x1F8F JUMP JUMPDEST SWAP2 SWAP1 DUP3 SUB SWAP2 DUP3 GT PUSH2 0x18D9 JUMPI JUMP JUMPDEST DUP2 DUP2 MUL SWAP3 SWAP2 DUP2 ISZERO SWAP2 DUP5 DIV EQ OR ISZERO PUSH2 0x18D9 JUMPI JUMP JUMPDEST ISZERO PUSH2 0x2002 JUMPI JUMP JUMPDEST PUSH1 0x40 MLOAD PUSH3 0x461BCD PUSH1 0xE5 SHL DUP2 MSTORE PUSH1 0x20 PUSH1 0x4 DUP3 ADD MSTORE PUSH1 0x18 PUSH1 0x24 DUP3 ADD MSTORE PUSH32 0x52657175657374496420646F6573206E6F742065786973740000000000000000 PUSH1 0x44 DUP3 ADD MSTORE PUSH1 0x64 SWAP1 REVERT JUMPDEST ISZERO PUSH2 0x204E JUMPI JUMP JUMPDEST PUSH1 0x40 MLOAD PUSH3 0x461BCD PUSH1 0xE5 SHL DUP2 MSTORE PUSH1 0x20 PUSH1 0x4 DUP3 ADD MSTORE PUSH1 0x1D PUSH1 0x24 DUP3 ADD MSTORE PUSH32 0x4E6F7420746865206F776E6572206F6620746869732072657175657374000000 PUSH1 0x44 DUP3 ADD MSTORE PUSH1 0x64 SWAP1 REVERT JUMPDEST ISZERO PUSH2 0x209A JUMPI JUMP JUMPDEST PUSH1 0x40 MLOAD PUSH3 0x461BCD PUSH1 0xE5 SHL DUP2 MSTORE PUSH1 0x20 PUSH1 0x4 DUP3 ADD MSTORE PUSH1 0x13 PUSH1 0x24 DUP3 ADD MSTORE PUSH19 0x24B73B30B634B2103A3930B739B0B1BA34B7B7 PUSH1 0x69 SHL PUSH1 0x44 DUP3 ADD MSTORE PUSH1 0x64 SWAP1 REVERT JUMPDEST DUP1 SLOAD DUP3 LT ISZERO PUSH2 0x20F1 JUMPI PUSH1 0x0 MSTORE PUSH1 0x6 PUSH1 0x20 PUSH1 0x0 KECCAK256 SWAP2 MUL ADD SWAP1 PUSH1 0x0 SWAP1 JUMP JUMPDEST PUSH4 0x4E487B71 PUSH1 0xE0 SHL PUSH1 0x0 MSTORE PUSH1 0x32 PUSH1 0x4 MSTORE PUSH1 0x24 PUSH1 0x0 REVERT JUMPDEST ISZERO PUSH2 0x210E JUMPI JUMP JUMPDEST PUSH1 0x40 MLOAD PUSH3 0x461BCD PUSH1 0xE5 SHL DUP2 MSTORE PUSH1 0x20 PUSH1 0x4 DUP3 ADD MSTORE PUSH1 0x9 PUSH1 0x24 DUP3 ADD MSTORE PUSH9 0x2737BA1037BBB732B9 PUSH1 0xB9 SHL PUSH1 0x44 DUP3 ADD MSTORE PUSH1 0x64 SWAP1 REVERT JUMPDEST SWAP2 SWAP1 DUP3 ADD DUP1 SWAP3 GT PUSH2 0x18D9 JUMPI JUMP JUMPDEST SWAP1 DUP2 PUSH1 0x20 SWAP2 SUB SLT PUSH2 0x1B3 JUMPI MLOAD DUP1 ISZERO ISZERO DUP2 SUB PUSH2 0x1B3 JUMPI SWAP1 JUMP JUMPDEST PUSH1 0x0 DUP2 DUP2 MSTORE PUSH1 0x20 DUP2 DUP2 MSTORE PUSH1 0x40 DUP1 DUP4 KECCAK256 CALLER DUP5 MSTORE SWAP1 SWAP2 MSTORE SWAP1 KECCAK256 SLOAD PUSH1 0xFF AND ISZERO PUSH2 0x2187 JUMPI POP JUMP JUMPDEST PUSH4 0xE2517D3F PUSH1 0xE0 SHL PUSH1 0x0 MSTORE CALLER PUSH1 0x4 MSTORE PUSH1 0x24 MSTORE PUSH1 0x44 PUSH1 0x0 REVERT JUMPDEST PUSH1 0x0 DUP2 DUP2 MSTORE PUSH1 0x20 DUP2 DUP2 MSTORE PUSH1 0x40 DUP1 DUP4 KECCAK256 PUSH1 0x1 PUSH1 0x1 PUSH1 0xA0 SHL SUB DUP7 AND DUP5 MSTORE SWAP1 SWAP2 MSTORE SWAP1 KECCAK256 SLOAD PUSH1 0xFF AND PUSH2 0x2223 JUMPI PUSH1 0x0 DUP2 DUP2 MSTORE PUSH1 0x20 DUP2 DUP2 MSTORE PUSH1 0x40 DUP1 DUP4 KECCAK256 PUSH1 0x1 PUSH1 0x1 PUSH1 0xA0 SHL SUB SWAP6 SWAP1 SWAP6 AND DUP1 DUP5 MSTORE SWAP5 SWAP1 SWAP2 MSTORE DUP2 KECCAK256 DUP1 SLOAD PUSH1 0xFF NOT AND PUSH1 0x1 OR SWAP1 SSTORE CALLER SWAP3 SWAP2 SWAP1 PUSH32 0x2F8788117E7EFF1D82E926EC794901D17C78024A50270940304540A733656F0D SWAP1 DUP1 LOG4 PUSH1 0x1 SWAP1 JUMP JUMPDEST POP POP PUSH1 0x0 SWAP1 JUMP JUMPDEST PUSH1 0x0 DUP2 DUP2 MSTORE PUSH1 0x20 DUP2 DUP2 MSTORE PUSH1 0x40 DUP1 DUP4 KECCAK256 PUSH1 0x1 PUSH1 0x1 PUSH1 0xA0 SHL SUB DUP7 AND DUP5 MSTORE SWAP1 SWAP2 MSTORE SWAP1 KECCAK256 SLOAD PUSH1 0xFF AND ISZERO PUSH2 0x2223 JUMPI PUSH1 0x0 DUP2 DUP2 MSTORE PUSH1 0x20 DUP2 DUP2 MSTORE PUSH1 0x40 DUP1 DUP4 KECCAK256 PUSH1 0x1 PUSH1 0x1 PUSH1 0xA0 SHL SUB SWAP6 SWAP1 SWAP6 AND DUP1 DUP5 MSTORE SWAP5 SWAP1 SWAP2 MSTORE DUP2 KECCAK256 DUP1 SLOAD PUSH1 0xFF NOT AND SWAP1 SSTORE CALLER SWAP3 SWAP2 SWAP1 PUSH32 0xF6391F5C32D9C69D2A47EA670B442974B53935D1EDC7FD64EB21E047A839171B SWAP1 DUP1 LOG4 PUSH1 0x1 SWAP1 JUMP JUMPDEST PUSH1 0xFF PUSH1 0x1 SLOAD AND PUSH2 0x22B8 JUMPI JUMP JUMPDEST PUSH4 0xD93C0665 PUSH1 0xE0 SHL PUSH1 0x0 MSTORE PUSH1 0x4 PUSH1 0x0 REVERT JUMPDEST PUSH1 0x2 DUP1 SLOAD EQ PUSH2 0x22D8 JUMPI PUSH1 0x2 DUP1 SSTORE JUMP JUMPDEST PUSH4 0x3EE5AEB5 PUSH1 0xE0 SHL PUSH1 0x0 MSTORE PUSH1 0x4 PUSH1 0x0 REVERT JUMPDEST PUSH1 0x0 JUMPDEST DUP4 DUP2 LT PUSH2 0x22FC JUMPI POP POP PUSH1 0x0 SWAP2 ADD MSTORE JUMP JUMPDEST DUP2 DUP2 ADD MLOAD DUP4 DUP3 ADD MSTORE PUSH1 0x20 ADD PUSH2 0x22EC JUMP JUMPDEST SWAP1 DUP2 MLOAD DUP2 LT ISZERO PUSH2 0x20F1 JUMPI ADD PUSH1 0x20 ADD SWAP1 JUMP JUMPDEST SWAP1 PUSH1 0x0 PUSH1 0x20 SWAP2 DUP3 DUP2 MLOAD SWAP2 ADD DUP3 DUP6 GAS CALL ISZERO PUSH2 0x3C6 JUMPI PUSH1 0x0 MLOAD RETURNDATASIZE PUSH2 0x236F JUMPI POP PUSH1 0x1 PUSH1 0x1 PUSH1 0xA0 SHL SUB DUP2 AND EXTCODESIZE ISZERO JUMPDEST PUSH2 0x234E JUMPI POP JUMP JUMPDEST PUSH4 0x5274AFE7 PUSH1 0xE0 SHL PUSH1 0x0 SWAP1 DUP2 MSTORE PUSH1 0x1 PUSH1 0x1 PUSH1 0xA0 SHL SUB SWAP2 SWAP1 SWAP2 AND PUSH1 0x4 MSTORE PUSH1 0x24 SWAP1 REVERT JUMPDEST PUSH1 0x1 EQ ISZERO PUSH2 0x2347 JUMP INVALID 0xAD ORIGIN 0x28 0xB6 PUSH23 0xF7D3CD4284A5443F17F1962B36E491B30A40B2405849E5 SWAP8 0xBA PUSH0 0xB5 LOG2 PUSH5 0x6970667358 0x22 SLT KECCAK256 0xDE PUSH10 0x48634DF64E5A1D83036F CREATE2 0xBA CHAINID DUP2 0xD0 CALLDATACOPY DUP9 0xB6 PUSH21 0x941F85F9BADA412322DA9C64736F6C634300081C00 CALLER 0x2F DUP8 DUP9 GT PUSH31 0x7EFF1D82E926EC794901D17C78024A50270940304540A733656F0DE84508F2 0xC7 STATICCALL SWAP13 CALLDATALOAD GT CHAINID PUSH21 0x8B3025CB78B45DF37D868E48C6A75102FECDEEE645 0xAD ORIGIN 0x28 0xB6 PUSH23 0xF7D3CD4284A5443F17F1962B36E491B30A40B2405849E5 SWAP8 0xBA PUSH0 0xB5 "
        },
        "methodIdentifiers": {
          "DEFAULT_ADMIN_ROLE()": "a217fddf",
          "LP_PAIR()": "93a013e0",
          "MANAGER_ROLE()": "ec87621c",
          "PIONECHAIN_ID()": "db7736cb",
          "PIONE_TOKEN()": "d344f1b9",
          "POOL_LOCK()": "449b5392",
          "USDT_TOKEN()": "77b330c9",
          "addLiquidity(bytes32,uint256)": "3b57e2bc",
          "claimPioToPioneChain(uint256)": "6eba86a2",
          "claimUSDT(uint256)": "b0f9006a",
          "depositUSDT(bytes32)": "4e46d259",
          "getMinClaimPIOAmount()": "09471528",
          "getOptimalAmountPIO(uint256)": "bc339809",
          "getOptimalAmountUSDT(uint256)": "11470103",
          "getRequestIdOwner(bytes32)": "f4627a11",
          "getReserves()": "0902f1ac",
          "getRoleAdmin(bytes32)": "248a9ca3",
          "getTransactionInfo(bytes32)": "49e6b62c",
          "getUserBalances(address)": "abd3f612",
          "grantRole(bytes32,address)": "2f2ff15d",
          "handleBridgeCompleted(bytes32,address,uint256,uint256,uint256)": "5585a6fa",
          "hasRole(bytes32,address)": "91d14854",
          "pause()": "8456cb59",
          "paused()": "5c975abb",
          "pioneBridge()": "edc73dbc",
          "previewAddLiquidity(uint256,uint256)": "1cdf2dc3",
          "renounceRole(bytes32,address)": "36568abe",
          "revokeRole(bytes32,address)": "d547741f",
          "router()": "f887ea40",
          "setMinClaimPIOAmount(uint256)": "78bb5dbd",
          "setPioneBridge(address)": "721c8c0a",
          "supportsInterface(bytes4)": "01ffc9a7",
          "unpause()": "3f4ba83a"
        }
      }
    }
  }
}